:020000040800F2
:1000000000500020DD020008B57B0008C164000834
:10001000BF640008BD640008BB6400080000000065
:10002000000000000000000000000000B77B000896
:10003000B964000800000000B77B0008A96400084C
:10004000B77B0008B77B0008B77B0008B77B0008C8
:10005000B77B0008B77B00088D640008B77B0008F9
:10006000B77B000875640008B77B0008B77B000801
:10007000696400085D640008B77B0008B77B00086E
:100080005164000845640008B77B0008B77B00088E
:10009000B77B0008B77B0008B77B0008B77B000878
:1000A000B77B0008B77B0008B77B0008B77B000868
:1000B000B77B00086D630008B77B0008B77B0008BA
:1000C000B77B0008B77B0008B77B0008B77B000848
:1000D000B77B0008B77B0008B77B0008B77B000838
:1000E000B77B0008B77B0008B77B00080000000062
:1000F0000000000000000000000000000000000000
:1001000000000000000000005FF808F18846044687
:1001100083B50848466B876B856A074801F074FB16
:10012000CDF800803B4632462946204601F082FB4E
:1001300000BEFEE700ED00E0A98C000888460446FA
:1001400083B50848466B876B856A074801F05CFBFE
:10015000CDF800803B4632462946204601F06AFB36
:1001600000BEFEE700ED00E0B78C000888460446BC
:1001700083B50848466B876B856A074801F044FBE6
:10018000CDF800803B4632462946204601F052FB1E
:1001900000BEFEE700ED00E0C38C000808B501F0EA
:1001A00035FD364B364A37499A60374B374A384C1B
:1001B00038480B601360384DA84204D254F8045FED
:1001C00040F8045BF7E708683449884203D11168B6
:1001D000334A914200D0FEE73249334A0B60136044
:1001E000324B3348834203D2002043F8040BF8E734
:1001F0000B680BB9136803B1FEE72E4A2E4B51680A
:1002000001F00C01042901D0082901D02B490EE08E
:1002100051685068C1F38341C40301F1020102D562
:100220005068800301D5264800E024484143196006
:1002300052682449C2F30312895C1A68224CCA40EE
:100240001A60224B00251E46E41AA410AC4204DDBD
:1002500056F8253098470135F8E71D4B1D4C1E46D2
:10026000E41AA4100025AC4204DD56F82530984766
:100270000135F8E71849012000F04AF800ED00E0E8
:100280000000000800000020BABADECA7C0400208A
:1002900018A20008000000208004002078563412C4
:1002A0003254769880040020181700208004002023
:1002B0001C170020001002400400002000127A00E9
:1002C00000093D00D08C00080C0300080C03000856
:1002D0000C030008100300080800002008B5FFF711
:0402E0005DFF00BFFF
:1002E4001CA2000800000020800400201CA20008BA
:1002F4000000001000000010800400201C170020E3
:0C03040000000010000000101173000841
:10031000A84A2DE980481368A74C43F010031360E6
:100320004FF6FF02E368B9B01A40A44BA44D134343
:10033000E36007F0ABFA4FF6FF02AB696FF00B001A
:1003400043F00103AB61AB6903F001030C930C9B19
:10035000E3681A40994B1343E36007F081FA6FF0AA
:100360000A0007F07DFA6FF0090007F079FA6FF0E4
:10037000030007F075FA4FF0FF3007F071FA914A69
:10038000536823F0E06343F0007353606B6803F03D
:100390000C03042B07D06B6803F00C03082B0AD165
:1003A0006B68DB0307D54FF4003393FAA3F22A6896
:1003B00093FAA3F33BE02B68834A23F480332B604A
:1003C0002B6823F480232B6014684FF4003393FAD6
:1003D000A3F17B48296893FAA3F3B3FA83F303F0FC
:1003E0001F0321FA03F3DE0708D513681B1B642BD8
:1003F000EBD9704A13685F076ED0A0E0036843F43E
:100400008033036010684FF4003393FAA3F1296836
:1004100093FAA3F3B3FA83F303F01F0321FA03F370
:10042000DC0704D413681B1A642BECD9E1E76B6872
:1004300003F00C03082BDCD04FF0807393FAA3F386
:10044000B3FA83F39B0003F18443002203F5840392
:100450001A605D4A14684FF0007393FAA3F158498B
:10046000286893FAA3F3B3FA83F303F01F0320FA87
:1004700003F3D80704D513681B1B022BEBD9B8E78D
:100480004B6823F400334B604B6823F4741343F43C
:1004900088134B604FF0807393FAA3F3B3FA83F39E
:1004A0009B0003F1844303F5840301211960106864
:1004B0004FF0007393FAA3F1296893FAA3F3B3FA08
:1004C00083F303F01F0321FA03F3D90791D41368D0
:1004D0001B1A022BECD98CE7136823F0070343F0B7
:1004E00001031360136803F00703012B74D16B68D9
:1004F000334923F0F0036B604FF0007393FAA3F2DB
:100500002A6893FAA3F3B3FA83F303F01F0322FAE2
:1005100003F3DA0760D54B6823F0030343F00203CB
:100520004B60294B19686A6802F00C02082A33D024
:1005300041F288301A68521A8242F4D94CE06B6852
:100540001F4923F0F0036B604FF0007393FAA3F29E
:100550002A6893FAA3F3B3FA83F303F01F0322FA92
:1005600003F3DB0738D54B6823F0030343F00203A2
:100570004B60154B19686A6802F00C02082A25D1F5
:100580000C4A136823F0070343F001031360136858
:1005900003F00703012B1FD16B6823F4E06343F4DE
:1005A00080636B606B6823F460536B6007F06EF9D7
:1005B00012E000BF0020024000ED00E00003FA0559
:1005C0000010024000000140FC0E002041F2883083
:1005D0001A68521A8242CED96B6843F480036B606A
:1005E00001F08EFB4FF47A73B0FBF3F00138B0F1F9
:1005F000807F09D2A14BA24AF021586082F82310D3
:1006000000229A6007221A609C4A4FF0FF3013685C
:1006100024AC43F00403136007F022F9AB69994E50
:1006200043F01003AB61AB694FF0030B03F0100311
:100630000B930B9BAB69214643F02003AB61AB6985
:10064000914803F020030A930A9BAB694FF001081D
:1006500043F00403AB61AB694FF0020903F00403FC
:100660000993099BAB69894F43F00803AB61AB6900
:10067000CDF894B003F008030893089B4FF460434F
:10068000249301F0C5FB824B00222146304626927E
:100690000292CDF89080259301F0BAFB4FF23A0315
:1006A000214630462493CDF89480CDF89C9001F0FB
:1006B000AFFB4FF44173214630462493CDF894B0FC
:1006C00001F0A6FB029A4FF4E063384621462592DA
:1006D0002493CDF8988001F09BFB21464FF4004312
:1006E00038462493CDF89480CDF89C9001F090FB8F
:1006F000684BDFF8C48133614FF000433B61062053
:1007000007F0AEF84023C8F800306B690C2043F0C6
:1007100001036B616B694FF4805903F00103079388
:10072000079B07F09DF8C8F800900D2007F098F897
:100730004FF40053C8F80030102007F091F84FF440
:100740008033C8F80030112007F08AF84FF40033E6
:10075000C8F80030029A504B5049DFF860819A6027
:10076000DA605A619A61DA611A6293F8352083E897
:1007700002014FF480410297DFF844A1196102F0B1
:10078000FF081F46002A45D183F83480C023214644
:100790003046249312232593CDF89CB001F038FB0A
:1007A000DAF81C303E4E43F40013CAF81C30DAF875
:1007B0001C304FF0100C03F400130D930D9B394BBC
:1007C0004FF0800A304686E80810C6F80880C6F860
:1007D0000CA0C6F81080C6F81480C6F81880C6F8B9
:1007E0001C9007F073F8FE6277622F4E2F4B304655
:1007F00086E80801C6F80880C6F80CA0C6F8108084
:10080000C6F81480C6F81880C6F81C9007F05EF889
:100810003E6377623A68242387F83530136823F003
:100820000103136001F0DEFA214A2249B0FBF2F223
:100830007B683E688B428E4688BF4FF4967172602B
:1008400082BF4A434FF47A71B2FBF1F2734502F171
:100850000102326208D85B00B0FBF3F0C0F30B0377
:10086000032B98BF042038E0BA685ABB03EB43035C
:10087000B0FBF3F040F400402AE000BF10E000E0DD
:1008800000ED00E0000C01400010014000080140B4
:100890000000111000003AF0D01600200054004073
:1008A0009C0700206C000240D4070020800002401A
:1008B00040420F00A086010000E100E0801A06001F
:1008C0000010024019225343B0FBF3F040F44040C3
:1008D000C0F30B03002B08BF0120FA693B6AF061EB
:1008E000134333603A69FB684FF4827E1343B3606D
:1008F0007A69BB691343F3603368202243F0010334
:100900003360C04E0023BB63B36087F83520F360CB
:1009100087F83630BC4A33617361F36133627362C6
:10092000B3620A23F36296F8513086E804404FF42C
:100930008022B26103F0FF09002B61D1AB694FF057
:10094000030843F48053AB61AB69214603F4805341
:100950000E930E9BB0232493AC4802234FF0100A51
:100960002593CDF89C8001F053FA01232146A74836
:10097000CDF890A02593CDF89C8001F049FA029B18
:100980002146C3F810A0A1484023DFF8A082249399
:10099000CDF89490CDF8989001F03AFA9C4B4FF036
:1009A000800B88E8080440464FF4005AC8F80890C5
:1009B000C8F80CB0C8F81090C8F81490C8F818908F
:1009C000C8F81CA006F082FFC6F84080C8F8246072
:1009D000DFF85C828F4B404688E80802C8F8089030
:1009E000C8F80CB0C8F81090C8F81490C8F818905F
:1009F000C8F81CA006F06AFFC6F84480C8F8246056
:100A0000B168706832680843F168022308433169AD
:100A100086F851300843716913680843F16923F07F
:100A200040030843316A13600843B369B16A08435D
:100A300003F40071014311601B0C716A03F004039D
:100A40000B435360F36A1361D36923F40063D361EA
:100A500000230122736586F851206F4E4FF08042CB
:100A600086E80C0030464FF49E62B3603361F2605A
:100A700004F0A8FE4FF48053129396F83830B14634
:100A8000012B03D012A9304604F086FE99F83930C4
:100A900003F0FF0213B9604B83F838205E4E4FF02D
:100AA0000208311DD9F8000089F8398001F0F4F806
:100AB00099F8383001218B4289F8391013D0336806
:100AC00086F839805A6822F070025A605A685A6073
:100AD0009A6822F080029A609A689A60002386F8E9
:100AE000391086F8383099F838204B4B012A39D024
:100AF000022283F839201B6848481A6A834222F090
:100B000010021A62196A5A689E6921F0200E26F4B2
:100B1000E64646F4C0460ED1279821F0A00141EAEE
:100B20000011299822F4406242EA80022A9821F0BA
:100B3000400E42EA80025A604FF41E729E619A6330
:100B4000C3F820E09A6942F400629A619A6922F43B
:100B500080629A619A699A61012389F83930002389
:100B600089F83830D9F80030B3F1804F07D102232B
:100B700016A9264816931793199301F049F9284BA3
:100B8000284A4FF4E13683E8440000229A60DA6094
:100B90001A619A61DA6193F839200C21596102F0E7
:100BA000FF069846F2B983F83860EB69214643F4B2
:100BB0008023EB61EB691C4803F480230F930F9BA8
:100BC0004FF480632493022325930323279301F09A
:100BD0001FF94FF400632146134824932596269667
:100BE00001F016F9D8F800B0022388F83930DBF8A4
:100BF0000C30DFF82CA023F40053CBF80C30DBF8DA
:100C0000103017E03C070020003001400008014090
:100C1000300002401C0002408C040020002C0140E7
:100C20001405002000480040000C0140540800203A
:100C30001808002023F44052D8F80C301343CBF8A6
:100C40001030D8F80820D8F81030DBF80C60D8F84D
:100C5000140042EA0301084326F4B05121F00C01CC
:100C60000143CBF80C10DBF81430192623F4407242
:100C7000D8F818301343CBF81430A14B9B4519D149
:100C800001F09AF87043DAF804209300B0FBF3F314
:100C90006422B3FBF2F31B010493059201F08CF87C
:100CA0007043DAF804309900B0FBF1F1039101F0E0
:100CB00083F818E001F096F87043DAF80420930006
:100CC000B0FBF3F36422B3FBF2F31B010493059230
:100CD00001F088F87043DAF804309900B0FBF1F1C4
:100CE000039101F07FF84643DAF80400059A80008A
:100CF000B6FBF0F0B0FBF2F00399049B02FB10117D
:100D000009013231B1FBF2F202F00F021A43D8F8B6
:100D10000030CBF808201A69002622F490421A61AC
:100D20005A6916A922F02A025A61DA68754842F413
:100D30000052DA600123C8F83C60042288F8393098
:100D4000179303231692199301F062F8029A4FF455
:100D500080231361082316936B4B16A969481793D8
:100D6000189601F055F8092006F07AFD674B4FF40C
:100D70000072C3F88020EB69654A43F00203EB611F
:100D8000EB69644D03F002031093109B4FF48058FD
:100D90002023284685E80C00AE60C5F80C802E6143
:100DA00004F010FD95F83830CDF89080012B03D079
:100DB0002146284604F0F0FC2B686FF001021A610E
:100DC0001D2006F04DFD514B4FF000521A60D9F82E
:100DD00000303DAD1A6A22F010021A621A6A42F01F
:100DE00010021A624C4A934202BF5A6C42F400420B
:100DF0005A641A6842F001021A6029AA12F80C0C0F
:100E0000002363F3000002F80C0C32F80C0C4FF4D2
:100E10007A7666F34C0022F8143C42F8103C22F833
:100E20000C0C42F8083C02F8043C1432AA42E5D10A
:100E30003A4A8DF85230129280228DF85420402286
:100E40008DF85520364A8DF85330ADF85630ADF850
:100E50005030136097F835301394202B314E324DBB
:100E6000904640F0FF80012142F210722F4806F0B8
:100E700027FE0146002840F0F58096F83430012B1B
:100E800000F0F080012386F8343033681A6822F4C9
:100E900000621A60242286F83520B0631A684FF089
:100EA000011042F480721A6044F6206206F008FED7
:100EB000002840F0D780336878221A61D5F800E026
:100EC0005869596996F83520C0F34000C1F3802174
:100ED000D2B268BB61BBA02A2AD044F620612A683E
:100EE000CEEB02028A4284BFA02287F835205869DF
:100EF0005969C0F34000C1F3802197F83520E7E736
:100F000000380140000801400000311000E100E01D
:100F10000004004070160020002C0140048B0008E3
:100F200054050020D0160020FC0E00200200100006
:100F30004FF0200987F835905A69DFF824A312F0A2
:100F4000020F1A6842F400721A605A697CD011923A
:100F50009B6942F2107211930121B948119B06F06E
:100F6000AFFD064600287DD18AF83400AE208AF80D
:100F7000359004F079FC484604F076FC102004F02B
:100F800073FCB02004F070FCC82004F06DFC304607
:100F900004F06AFC102004F067FC402004F064FCBC
:100FA000812004F061FCFF2004F05EFCA12004F02D
:100FB0005BFCA62004F058FCA82004F055FC3F2060
:100FC00004F052FCA42004F04FFCD32004F04CFCAD
:100FD000304604F049FCD52004F046FCF02004F033
:100FE00043FCD92004F040FC222004F03DFCDA2030
:100FF00004F03AFC122004F037FCDB2004F034FC4F
:10100000484604F031FC8D2004F02EFC142004F03E
:101010002BFCAF2004F028FC03F048F8894B012298
:101020004FF47A701E805E805A7101F041F9864B50
:10103000ADF890602593BDF850300133ADF85030D5
:1010400012ABC8F800300DE022F480625A61012131
:1010500042F210727A4806F033FD18B98AF83590DA
:101060008AF83400794E01F00FFA642001F020F97B
:10107000304604F0D8FC90B14DF6DC43B7693A88AD
:101080009A420CD13022002116A806F0B8FD704A11
:1010900016A9381D04F036FA002840F01183022307
:1010A000ADF8A4306B4B2A93BDF850304FF02908AF
:1010B0000133ADF8503001F0E7F9642001F0F8F8A1
:1010C000B36938263246002116A85F8806F097FDDE
:1010D00003238DF85C308DF8613033238DF8633055
:1010E00007238DF864308DF86F3028238DF8703029
:1010F000DC2302214FF0080E8DF873302E230422DA
:101100008DF85A108DF85D108DF866E040214FF093
:10111000090E4FF0250C8DF874302F238DF85920CF
:101120008DF85E208DF85F1005228DF868E08DF84F
:101130006CC04FF0190E8DF86D108DF876302621A9
:101140002D234FF0370C01208DF860208DF86AE0D8
:1011500006224FF0420E8DF86E104FF088091021D4
:101160008DF877308DF87AC030234FF0900C8DF8E1
:1011700058008DF862208DF86BE08DF871108DF8B5
:1011800072808DF878308DF87BC08DF87C608DF89A
:1011900075908DF87DE08DF883308DF88B30FF23CE
:1011A0008DF88E30E4238DF865303D26C0238DF810
:1011B00080608DF867301226029B4FF08F0C8DF8FF
:1011C00081604FF06F0E8DF886804FF03C0A182634
:1011D0004FF0BE088DF879008DF87EA08DF87FC0A5
:1011E0008DF882E08DF884608DF885908DF8878089
:1011F0008DF888A08DF889C08DF88AE08DF88C6014
:101200008DF88D201448196103F04AFD242805D07B
:101210000123ADF8B830114B2F935AE02E68AA2263
:101220002F210D4803F028FD2F210B4803F038FD36
:10123000AA2800F051822B689B1B312BEFD94BE27F
:1012400002001000360700200F8B00087C0F0020E2
:1012500090920008288B00086C0F0020408B00083B
:10126000D0160020BB4E0121304603F009FF3D217E
:10127000304603F015FD3D2100F0FE02304603F03C
:10128000FBFC317B304602F03DFA0121304603F091
:10129000F7FED5F800802721AE4803F001FD0306D4
:1012A00040F13B822B68C8EB0303312BB0D8AA4B2B
:1012B00000221A70A94BAA4A37811A60A94B1F2134
:1012C0001E600123ADF8B830A74BA2482F9303F05E
:1012D000BFFEBDF8503064200133ADF8503000F04F
:1012E000E7FF01F0D1F84FF47A7000F0E1FF9F4B77
:1012F00000261E608022009640230A219C4803F0AD
:10130000EDFB00964023802228219A4803F0E6FB5B
:101310008022322140239848009603F0DFFB01F041
:10132000B3F840F6B83000F0C3FF944BA3F8C860A0
:1013300004F048FC924E934A934B29681360F16382
:1013400003920493029A4FF00043D5F80080136192
:101350008E4B4FF400221A614FF480121A614FF441
:1013600000121A6100239C461946D6F83C90DFF81B
:1013700010B2834800278F420DBFBBF81CA0B0F805
:101380001CA08269DBF8182007F1010708BF4FEAAB
:101390000A4A042FC2F810A000F10800EBD1002087
:1013A00003285FFA80FA13D0754F07EBC00E57F889
:1013B0003070BEF804E0BF6801301EEA070FEFD1BD
:1013C0009A445FFA8AFAD5F800904FF0010C01E0D8
:1013D0004FF0FF0A01310429694806D00333BAF1FE
:1013E000FF0FDBB20BF1080BC3D0BCF1000F01D033
:1013F000C0F83C9096F83820614B52450ED193F8D6
:101400003920013283F8392093F83A20FF2A0CD092
:10141000BAF1FF0F09D183F83AA006E083F83A2029
:10142000002283F838A083F8392096F84030BBB109
:10143000574B03F128000833984206D033F8042CA8
:1014400053F8081C12040A61F5E7029A4FF40043AE
:1014500013614E4B08221A6110221A6120221A6170
:10146000039BDFF840A11F687B6813F0010F3B6806
:1014700010D19B683946204698479DF89030002B44
:1014800040F052817B6843F001037B602B68BB60B6
:10149000B94618E0DB683A4A394620469847DDF8F5
:1014A00090909DF894B0B9450AD03B6839461B69C5
:1014B00012A898477B6823F001037B600023BB6080
:1014C000BBF1000F22D1039BDFF8DCB01F68B945E8
:1014D0001FBF002386F83930FF2386F838305F4578
:1014E00000F02D81F26B424580F02981DAF8083056
:1014F000C2EB0802D3F80230C3F303614EF6602357
:1015000001FB03339A4200F21E8118E1214803F0E7
:10151000DDFA214B049A1A654FF4FA62A3F84C20C5
:10152000039A13609AF90C3013B15F2B40F01A81C3
:101530001A4F97F8D032BB4613F0800F3DD02B687E
:10154000B3F57A7F3DD91649104A0B7873B3022060
:101550002EE000BF6C0F00201305002014080020AF
:10156000A94B0008D0040020358B0008540500204A
:101570004D8B0008558B0008598B0008E81300209C
:10158000980A0020C80400209C0F0020000C014095
:10159000B00A0020688B0008401300206C10002067
:1015A000D40400207C0F0020DC0A00204FF400301F
:1015B00083F0010310610B7003E06C4B4FF40032B9
:1015C0001A616B4A1368C3EB08030A2B75D9694883
:1015D000C2F8008003F0C8FA00286ED0664B674A54
:1015E000B3F800904FF6FF731FFA89F99945644BE1
:1015F00029D197F8D0024FF0420800F07F0008FB95
:1016000000B01B780021DBB2B2F800A00C303D2204
:10161000059306F0F4FA97F8D002059B00F07F00DE
:1016200008FB00B03D2B28BF3D231A4655490C301E
:1016300006F0DAFA97F8D0320FFA8AFA03F07F034D
:1016400008FB03B82EE0504F4FF0420897F8D00245
:1016500093F800B000F07F0008FB00704B4B0021B6
:10166000B3F800905FFA8BFBB2F800A00C303D227B
:1016700006F0C5FA5A4697F8D0023D2A00F07F00DE
:1016800008FB007028BF3D223E490C3006F0ACFA42
:1016900097F8D0321FFA89F903F07F0308FB03782B
:1016A0000FFA8AFA013303F0070343F0800388F846
:1016B0004CA0A8F84A9087F8D03200F0E5FE41E649
:1016C000334916A805F076F801287FF4E8AC022328
:1016D000ADF8A4302F4BE6E42E6855222F21254883
:1016E00003F0CAFA2F21234803F0DAFA552803D071
:1016F0002B689B1B312BF0D90026F3B238AA02EBE2
:10170000430313F8881C0136FF293FF4ABAD13F8EF
:10171000872C184803F0B0FAEFE72A68C8EB0202FA
:10172000312A7FF6B8ADBDE51B4803F0CFF91B4F5A
:10173000049B3B6542F21073A7F84C30A8E6039B6C
:10174000C3F80090EEE63B6839461B6916A8984737
:101750007B6823F001037B600023BB60039BC3F81D
:1017600000B0DFE60E4803F0D7F8E1E6000C0140D8
:10177000880400206C0F00208604002084040020D0
:1017800012050020D50400206C100020CC0400209D
:1017900090920008198B00087C8B000840130020F1
:1017A000E81300202DE9F041013B00249B00254671
:1017B0002646A6465FF0000C03E05FEA0E0CBCEB89
:1017C000030CBEEB0C0752F8078051F80C70A7FB16
:1017D0000878E41955EB080556F100061CF1040CD5
:1017E0009C4501DCF445ECDD40F80E402C463546C6
:1017F00000261EF1040E9E45DCDDBEEB430FDCDD52
:1018000040F80E40BDE8F0810FB407B504AB53F8C3
:10181000042B80210648019306F096FB0028C8BFE0
:101820004FF0FF3003B05DF804EB04B0704700BF29
:10183000600500202DE9F04104460D4627489046FA
:101840001F46069EFFF7E0FF21682548FFF7DCFFF3
:1018500061682448FFF7D8FFA1682348FFF7D4FF49
:10186000E1682248FFF7D0FF21692148FFF7CCFF4C
:1018700061692048FFF7C8FFA1691F48FFF7C4FF4F
:10188000E1691E48FFF7C0FF1D4C1E48FFF7BCFF73
:1018900029461D48FFF7B8FFE16A1C48FFF7B4FF6F
:1018A000216B1B48FFF7B0FFE16B1A48FFF7ACFF55
:1018B0002A0603D541461848FFF7A6FF2B0403D597
:1018C00039461648FFF7A0FF1548FFF79DFF314640
:1018D000BDE8F0411348FFF797BF00BF9F8B00089A
:1018E000AD8B0008BA8B0008C78B0008D48B0008AA
:1018F000E18B0008EE8B0008FB8B0008088C0008C9
:1019000000ED00E0158C00081F8C00082E8C0008EC
:101910003D8C00084C8C00085B8C00086A8C000829
:10192000798C00087F8C000830B505461C468DB0C8
:10193000684693F90030FFF735FFD4F888306946E0
:10194000284698470DB030BD13460A46FFF7ECBF56
:1019500000EB81010023884206D251F8042D43EAAE
:1019600052030B60D307F6E77047036870B513F0B6
:1019700001050646144604D00A46014603F02FFD31
:10198000054621463046FFF7E3FF45B104F18042AA
:10199000013A56F8223043F0004346F8223070BD39
:1019A00010B5013A52B2002A09DB50F8224051F832
:1019B00022309C4205D8F4D24FF0FF3010BD0020F9
:1019C00010BD012010BD70B504461D469DF9106084
:1019D00003F005FD30B9324621462846FFF7E0FF07
:1019E000012806D02A4621462046BDE8704003F073
:1019F000D7BC70BD30B5002463B2934205DA51F80C
:101A00002350013440F82350F6E730BD013949B284
:101A1000002909DA013149B2A1B101F18043013B4A
:101A200050F82330002004E050F82130002BEDD096
:101A3000F0E713B15B080130FBE7013900EB41111E
:101A400008B27047084670474A11012350F8220037
:101A500001F01F0103FA01F10840704700231A4604
:101A600010B55CB28C4204DA50F8244001332243B2
:101A7000F7E7B2FA82F0400910BD30B587B01546DD
:101A80000A460146684603F08BFC04462946684630
:101A9000FFF7E4FF003418BF01246400002814BFDE
:101AA0006042C4F1010007B030BD10B500235AB246
:101AB0008A4204DA002440F822400133F7E710BDDF
:101AC0002DE9F0471E46A6B09DF9B84002AD234669
:101AD00007462846FFF766FE1AAB214630468DE8DA
:101AE0002800FFF793FFC0EB84100FFA80F8202541
:101AF00098FBF5F5444B6DB208EA0303002BBEBF1B
:101B000003F1FF3363F01F0301330FFA83F90EA8CB
:101B10002946FFF7CAFFB9F1000F4FEA850012DD31
:101B20000EAB184400231A46A24212D256F82210D5
:101B300001FA09F52B4340F82230C9F1200321FABC
:101B400003F30132F0E70EAB224631461844FFF7AB
:101B500051FFA6000EAB4FEA440A03EB060901252C
:101B6000B8F1000F44DB00218E4648B2504521DA1F
:101B700026AB03EB850353F8983C53F8202026ABA3
:101B800003EB800353F8603CD31ACEEB03039A4275
:101B900004D034BF4FF0010E4FF0000EC5F101022A
:101BA0000DF1980C0CEB820252F8982C013142F89E
:101BB0002030DAE7CEEB05035D4221460EA85D41F9
:101BC000FFF7C6FE26AA631E02EB8303324452F8D7
:101BD000601C53F8602C484642EAC17208F1FF3895
:101BE000214643F8602C0FFA88F8FFF7B1FEB7E7FB
:101BF00026AB03EB8505224655F8981C3846FFF7BF
:101C0000F9FE26B0BDE8F0871F0000800F4B1A6870
:101C100042F001021A6059680D4A0A405A601A6877
:101C200022F0847222F480321A601A6822F4802230
:101C30001A605A6822F4FE025A604FF41F029A603A
:101C4000044B4FF000629A60704700BF00100240E2
:101C50000000FFF800ED00E008B50C4B1A680AB967
:101C60000B4A1A601A68C31C23F003030949134482
:101C70008B4206D905F0A2FF0C2303604FF0FF3022
:101C800008BD024910460B6008BD00BF5C0500207E
:101C90001C170020004C0020184A036890420AD00C
:101CA000B0F1804F07D0A2F59432904203D002F5F4
:101CB0008062904215D14A6823F0700313430F4AA3
:101CC00090420AD0B0F1804F07D0A2F594329042F2
:101CD00003D002F58062904203D1CA6823F44073B6
:101CE000134303608B68C3620B688362034B9842A3
:101CF00004BF0B690363012343617047002C01405B
:101D0000274B70B503F110052E4686B002AC224673
:101D100018685968083303C2AB421446F7D13388B8
:101D2000204CADF80430616801F00C03082B24D17D
:101D30004FF4701393FAA3F3B3FA83F301F4701220
:101D400022FA03F306AA134413F8102CCB0311D57F
:101D500061684FF4003393FAA3F3B3FA83F001F40C
:101D60000033C34006A90B4413F8140C0E4BB3FB0D
:101D7000F0F300E00D4B534300E00B4B6268F021A1
:101D800091FAA1F1B1FA81F102F0F002CA400849DA
:101D9000885C23FA00F0074B186006B070BD00BFE6
:101DA0008D8B00080010024000127A0000093D00EF
:101DB000E08C00080400002008B5FFF7A1FF074BE6
:101DC0004FF460525B6892FAA2F2B2FA82F203F424
:101DD0006053D340024AD35CD84008BD0010024093
:101DE000E08C000808B5FFF78BFF074B4FF4E0626B
:101DF0005B6892FAA2F2B2FA82F203F4E063D34093
:101E0000024AD35CD84008BD00100240E08C0008B4
:101E100000232DE9F7431D4601240A68AC4034EA4B
:101E2000020240F0A8804A68122A2BD00ED8022A5B
:101E300025D004D84AB3012A30D1CB682EE0032A3A
:101E40001BD0112A2AD1CB68043327E04D4EB24271
:101E50001BD006D8A6F58016B24216D006F58036FD
:101E600008E0494EB24210D006F58036B2420CD09E
:101E7000A6F58016B24211D107E000230EE0CB6830
:101E800008330BE0CB680C3308E08B682BB1012BD7
:101E90000CBF04614461082300E00423FF2C97BFBA
:101EA0000646A5F108020768AA0084BF47689200A9
:101EB0004FF00F0909FA02FE27EA0E0703FA02F2B1
:101EC00088BF061D3A433260D1F804E01EF0805FFF
:101ED00051D02E4A25F00307966907F1804746F056
:101EE00001069661926907F5803702F001020192BE
:101EF00005F00308019A4FEA8808BA6809FA08F65B
:101F000022EA060C224A90420DD002F580629042ED
:101F10000BD002F58062904209D01E4EB0420CBF39
:101F20000322042204E0002202E0012200E0022257
:101F300002FA08F242EA0C02BA60174A1EF4803F25
:101F4000166814BF2643A643166056681EF4003F69
:101F500014BF2643A643566096681EF4801F14BF24
:101F60002643A6439660D6681EF4001F14BF344370
:101F700026EA0404D4600135102D7FF44DAF03B080
:101F8000BDE8F08300002110000031100010024075
:101F9000000801400014014000040140034A0020F1
:101FA000136943F080031361704700BF00200240B3
:101FB000064B1A69120641BF054A00205A6002F119
:101FC00088324CBF5A600120704700BF0020024099
:101FD000230167452DE9F0471E4C1F46237E054629
:101FE000012B8A46164632D00123237605F08CFC5D
:101FF00048BB012D03D0022D0CBF022504254FF054
:1020000000084FEA08123046394606F0F1FADFF8C8
:1020100048900023E361D9F8103080B243F0010307
:10202000C9F810302AF8180005F06EFCD9F8103005
:1020300023F00103C9F8103028B908F101085FFA4C
:1020400088F39D42DDD800232376BDE8F087022087
:10205000BDE8F087B016002000200240914B70B51B
:102060001968914D03680446AB4213D08F4A9342DE
:1020700012D01432934211D01432934211D0143240
:10208000934211D0143293420CBF4FF400024FF030
:1020900000620BE0082209E0802207E04FF40062B2
:1020A00004E04FF4004201E04FF400220A4238D02D
:1020B0001A68120735D51A68AB4222F008021A6076
:1020C00013D07A4A934212D01432934211D0143270
:1020D000934211D01432934211D0143293420CBF68
:1020E0004FF400034FF000630BE0082309E0802366
:1020F00007E04FF4006304E04FF4004301E04FF4C5
:102100000023684A5360636B43F001036363042355
:1021100084F82130002384F82030236B0BB1204653
:102120009847604B19682368AB4213D05F4A9342CB
:1021300012D01432934211D01432934211D014327F
:10214000934211D0143293420CBF4FF480024FF0EF
:1021500080620BE0042209E0402207E04FF4806235
:1021600004E04FF4804201E04FF480220A4234D070
:102170001A68560731D51A6890065EBF1A6822F0B1
:1021800004021A60AB4213D0484A934212D0143270
:10219000934211D01432934211D01432934211D091
:1021A000143293420CBF4FF480034FF080630BE076
:1021B000042309E0402307E04FF4806304E04FF478
:1021C000804301E04FF48023364A5360112384F8A2
:1021D0002130E36A0BB120469847324B19682368D7
:1021E000AB4213D0314A934212D01432934211D0F1
:1021F0001432934211D01432934211D014329342CC
:102200000CBF4FF400124FF000720BE0022209E005
:10221000202207E04FF4007204E04FF4005201E086
:102220004FF400320A423BD01A68910738D51A6839
:1022300092065EBF1A6822F002021A60AB4213D007
:102240001A4A934212D01432934211D0143293425C
:1022500011D01432934211D0143293420CBF4FF478
:1022600000134FF000730BE0022309E0202307E086
:102270004FF4007304E04FF4005301E04FF40033D7
:10228000084A5360636B6363012384F821300023A1
:1022900084F82030A36A1BB12046BDE8704018477F
:1022A00070BD00BF00000240080002401C00024058
:1022B00082B0054B019018681A680199121A8A4277
:1022C000FAD302B0704700BFFC0E0020214B01F191
:1022D0000C021A6000238B831F4B93F90C300BB157
:1022E0005F2B01D11D4B00E01D4B0B6201230B86C0
:1022F0001C4B4B630223A1F844301B4B8B6403231C
:10230000A1F85830194B93F8D0321B064CBF184B2C
:10231000184BCB650423A1F86C30174B0B670523D2
:10232000A1F88030154BC1F884300623A1F8943011
:10233000134BC1F898300723A1F8A830114BC1F80E
:10234000AC300823A1F8BC300F4BC1F8C0300023DB
:1023500003707047540500207C0F0020798D000821
:10236000848D00081C8D0008248D00086C1000204E
:10237000318D0008418D00084F8D0008568D0008F2
:10238000638D00086E8D0008C38D00080123037063
:102390007047002202707047038843F30903002B43
:1023A000A2BF90F908104268D15403884289591C91
:1023B00041F30901914261F30903A8BF02F1FF3221
:1023C0000380A4BF62F309030380704710B504467D
:1023D00005F0F2FB204610BD10B5044605F0ECFBFD
:1023E000204610BDF7B50D46002632230A210446CB
:1023F00017460096782205F10C0002F06FFB0B4B9C
:10240000A9681B68B5F84C205B1A9A4206D397F866
:102410003A30FF2B02D12560267103E0044B236084
:1024200000232371204603B0F0BD00BFFC0E002046
:102430009C0F002010B50446007A10F001001BD05C
:10244000E2680F4B0AB91A68E2601B68E2689A1AE0
:102450002389C3F34B039A420DD9094B60681B686B
:10246000E360237C0133237405F028FD237C98422C
:102470009CBF00232374207C6368184410BD00BFF8
:10248000FC0E0020704770472DE9F347B04E3268CC
:10249000002A00F0A881907A7F2808D8D17A3F29B5
:1024A00005D80024537B127B009401F0D1FD3268E3
:1024B000917A8FB27F2F3AD8D37A9DB23F2D36D8FA
:1024C00092F80C80547B414423447F29C8BFC7F154
:1024D00080083F2BC8BFC5F140041FFA88F8A4B29A
:1024E000B8441FFA88F84FF001092C44A4B22B46D7
:1024F000424629463846CDF8009001F013FD2346A8
:10250000424621463846CDF8009001F00BFD2346A7
:102510003A4629463846CDF8009001F003FDCDF843
:102520000090234642462946404601F0FBFC3168B4
:10253000CA7A0D68941CE4B2ADB18B7A8548013338
:10254000DBB2013203804280013D15F9010F30B149
:10255000012103F0ABF995F900308342F5D07E4BB1
:102560005B781C44E4B233687B4A5F7B5178033F5D
:1025700097FBF1F719681D89002918BF013FFFB2C9
:102580001FFA87FAAA45904639D300253168AFB2C1
:102590000B89BB4240F20181CB894A68BB4214D00F
:1025A00098F801004FF0140C05FB004E0CFB0727B8
:1025B00000220B7B897A8DE80500033B0131DBB2F9
:1025C0005FFA8EF2C9B2786815E0142000FB032090
:1025D000FFF730FF5E4B98F80170196805FB074262
:1025E0000B7B4FF0010E897A8DE88040033B01316F
:1025F000DBB2D2B2C9B201F0B7FD0135C6E7DB8963
:102600006A1E4FEA5709D21A4A4541DACAEB050554
:102610003168ADB20A89AA4240F2BF80CB894868CE
:10262000AB4216D098F801C0AA1A4FF0140E3A44E3
:102630000EFB050002FB0C424FF0000E0B7B897A6B
:102640008DE80050033B0131DBB2D2B2C9B2406821
:102650001AE0142303FB0500FFF7ECFE3C4B98F84F
:1026600001E019684FF0010C0A890B7BAA1A3A4461
:1026700002FB0E42897A033B0131CDF804C0CDF84C
:1026800000E0DBB2D2B2C9B201F06EFD0135BFE7A6
:102690001FFA89F5AB4236D20027BBB29A457CD9E6
:1026A0003168CA8948689A4213D098F801201425E5
:1026B00005FB070007FB024E00250B7B897A8DE89E
:1026C0002400033B0131DBB25FFA8EF2C9B24068ED
:1026D00015E0142303FB0700FFF7ACFE1C4B98F832
:1026E0000150196807FB05420B7B4FF0010E897AF8
:1026F0008DE82040033B0131DBB2D2B2C9B201F018
:1027000033FD0137C9E75D1B3168ADB2CA89C9EB3A
:1027100002033B449D4240DA954248681ED098F837
:1027200001E0AA1A4FF0140C4A440CFB050002FB0E
:102730000E420B7B897A4FF0000C033B0131CDF840
:1027400004C0CDF800E0DBB2D2B2C9B2406820E0EC
:10275000540500203607002010040020142303FB3A
:102760000500FFF767FE254B98F801E019684FF068
:10277000010CCA890B7BAA1A4A4402FB0E42897AD1
:10278000033B0131CDF804C0CDF800E0DBB2D2B29A
:10279000C9B201F0E9FC0135B6E731684A7B0D8921
:1027A000CB8992FBF5F75A4392FBF5F5887A0A7BC1
:1027B000A31E9BB20124092F024419460094CCBFEA
:1027C000FFB20A2701F0AEFB3168EDB20B7B8A7ACB
:1027D000C97A1A44013A294492B2CB1900949BB2A7
:1027E000104601F09FFB01F061FC05484FF4806248
:1027F000002102B0BDE8F04705F001BA5405002001
:102800001000002010B50446406805F057FB237AFD
:102810000E2885BF43F0010323726FF300030023EA
:102820008ABF23742372E36010BD00002DE9F041DC
:102830004B780C4603F0040303F0FF02444D90F87C
:102840003A60A3B3C9682B685B1A40F6B8318B4273
:102850002DD9FF2E2BD12046FFF79EFD2023267673
:10286000237263786FF3820363702B684FF4FA72FC
:10287000B3FBF2F36269934208D06361637883F03B
:102880000802C2F3C00262F3C30363706278238854
:1028900012F0080F43F30903626808BF94F90810A7
:1028A00023EAE37318BF5F21D154BDE8F0810A2EFB
:1028B000DBD8284B53F82680237EB3420BD1277CEC
:1028C00040460137FFB2277405F0F8FA874208D373
:1028D0000023237405E00023237412B12046FFF780
:1028E0005BFD237C18F90330082B28D1238862680C
:1028F000002143F30903D154238803F2FF3242F34A
:1029000009028A42ACBF62F3090361F30903238021
:1029100023886268002143F30903D154238803F21A
:10292000FF3242F309028A42ACBF62F3090361F34A
:102930000903238020232372FF23237691E7237248
:102940006378267643F0040363702B68E3608CE7BA
:10295000FC0E0020F08C0008038890F908104268F3
:1029600043F30903D154704770B50C46064615462B
:1029700003F056F880B2A04216D90921B4FBF1F158
:10298000327F707F8B189BB2024493420CDA01EBCA
:10299000C101641AA4B26E214C4303F5003304EB69
:1029A00083232B60012070BD002070BD006810B52E
:1029B000104A1149043002F0A5FD28B10D490E4816
:1029C00003F0F8FE012801D0002300E00A4B0B4978
:1029D0005A1E03F1170012F8014F824201F8014B11
:1029E000F9D193F82F30064803F001030233037046
:1029F00010BD00BF90920008E005002011060020E5
:102A00001006002070B5044686B00E46FFF7D0FAD7
:102A1000384B3422DA60A568626805F1240102F5BA
:102A20008063994210D3002506A9012341F8145D63
:102A300002A8029503930492059304F0ADFF0028C9
:102A400036D16368A36023E02946002200230120D9
:102A5000FFF7C0FAA1680022002302310220FFF72D
:102A6000B9FAA1680022002306310220FFF7B2FA6A
:102A7000A168002200230A310220FFF7ABFAA16807
:102A8000002200230E3102201235FFF7A3FAA560C1
:102A90004DF6DC420023A1680120FFF79BFAA168F4
:102AA0000023326802310220FFF794FA034608B18E
:102AB00000241AE0A568E268A91D0220FFF78AFA3F
:102AC00003460028F4D1226905F10A010220FFF72C
:102AD00081FA03460028EBD1626905F10E0102205C
:102AE000FFF778FAB0FA80F46409FFF757FA204646
:102AF00006B070BD002002402DE9F74F07468B4617
:102B000092461E4602F08CFF441CE4B2422C0C9DFF
:102B100080460AD8BB6801A9D3F802303846019331
:102B20008DF80540FFF76EFF00E04224A04502D17A
:102B30004FF00009C4E002AA4FF0FF3342F8043D11
:102B40001FFA88F13846FFF70FFF81460028EFD0C3
:102B50005D4F4FF03408FFF72BFAC7F80C805A4648
:102B6000002301990120FFF735FAFFF717FAFFF765
:102B70001FFAC7F80C80019CDAF8002004F162010A
:102B800000230220FFF726FA04F16601DAF8042098
:102B900000230220FFF71EFA04F16A01DAF8082088
:102BA00000230220FFF716FAFFF7F8F9019CFFF760
:102BB000FFF9C7F80C80A11C326800230220FFF740
:102BC00009FAA11D726800230220FFF703FA04F13D
:102BD0000A01B26800230220FFF7FCF904F10E019C
:102BE000F26800230220FFF7F5F904F112013269BF
:102BF00000230220FFF7EEF904F1160172690023A9
:102C00000220FFF7E7F9FFF7C9F9019CFFF7D0F9B8
:102C1000C7F80C802A68002304F132010220FFF774
:102C2000D9F96A68002304F136010220FFF7D2F9CE
:102C3000AA68002304F13A010220FFF7CBF9EA6801
:102C4000002304F13E010220FFF7C4F92A690023A2
:102C500004F142010220FFF7BDF96A69002304F183
:102C600046010220FFF7B6F9AA69002304F14A01E0
:102C70000220FFF7AFF9EA69002304F14E010220B8
:102C8000FFF7A8F92A6A002304F152010220FFF796
:102C9000A1F96A6A002304F156010220FFF79AF9AC
:102CA000AA6A002304F15A010220FFF793F9EA6AA5
:102CB000002304F15E010220FFF78CF9FFF76EF9A3
:102CC000484603B0BDE8F08F00200240F8B50D463D
:102CD000064600241D4B214605F1D507C82205F103
:102CE0000D001C6004F08BFF21460622384604F0DC
:102CF00086FF2146C82205F1E10004F080FF21464D
:102D0000062205F1DB0004F07AFF2022214605F2BD
:102D1000A91004F074FF0E4B2C735A7885F8C94142
:102D200002F0FB0242F008025A7020221A720622B8
:102D30005A811A885F6064F309021A80FF22DC60FE
:102D40001C745C611A7634703046F8BD540500205E
:102D5000FC0D00202DE9F04FA24B16461A68B7B0C3
:102D6000D20707900C46089105D49F4A11689F4AE4
:102D7000116001221A60237B0027042B00F2858258
:102D8000DFE813F0050036006E004201A401984D03
:102D9000402380220A219748009701F09FFE294690
:102DA0003046FFF743FD4023009780221E2104F1A7
:102DB000D50001F093FE96F83A304FF000080B2B47
:102DC00010D1012323732846FFF7C6FD6B78DB344F
:102DD00003F0FB0343F008036B7020232B726C603D
:102DE00006232FE0092B40F05082834B08934CE2DE
:102DF0007F4D402380220A218048009701F06EFE1B
:102E000029463046FFF712FD4023009780221E21FD
:102E100004F1DB0001F062FE96F83A304FF0000852
:102E20000B2BDFD1022323732846FFF795FD6B7828
:102E30000D3403F0FB0343F008036B7020232B7267
:102E40006C60C8236B812B88C5F80C8068F309037C
:102E50002B80FF2385F81080C5F814802B7614E2B0
:102E6000634D402380220A216548009701F036FE19
:102E700029463046FFF7DAFC28780023252886BF4C
:102E8000203880B2002020440093802240231E215D
:102E90000D3001F023FE96F83A300B2BA2D103231C
:102EA00004F1DB0923735248FFF756FD484605F04D
:102EB00005F804F10D03099394F9D63094F9D8601C
:102EC000A3F16102192A94F9DA5098BF23F0200384
:102ED000A3F1410BA6F16103192BA5F1610398BF82
:102EE00026F02006192B04F1E10382464FF0C802B8
:102EF0004FF00001184698BF25F02005069304F016
:102F00007EFE94F9D5300D21A3F16102192A98BFF4
:102F100023F02003413BB3FBF1F201FB123394F9A0
:102F2000D72094F9D970A2F16100192898BF22F036
:102F30002002413AB2FBF1F001FB10224FF01B08D6
:102F40000A92A7F16102192A4FF0000142460CA82B
:102F500098BF27F020070B9304F051FE0B9B294AE2
:102F60000CA808FB032104F0A1FF524649460CA817
:102F700003F07EF94246002113A804F040FE0A9BAC
:102F800013A81A461F4B413F08FB023104F08EFF85
:102F90005246494613A803F06BF9424600211AA88D
:102FA00004F02DFE0D21B7FBF1F301FB1371154B5E
:102FB0001AA808FB013104F079FF524649461AA8C5
:102FC00003F056F9413E413D4FF0000A099804F0E4
:102FD00075FF504540F28D80BAF1C80F40F09180E6
:102FE00087E000BF30060020FC0E00202C060020E9
:102FF000FC0D0020DF8D00089C0F0020FB8D0008D9
:10300000138E00088F8F0008402380220A21A448D5
:10301000009704F1E10501F061FD284604F04EFF40
:10302000302808D99F4FA04A3B6811685B1AB3F556
:10303000FA7F00F21E8194F8C90100272044402342
:10304000009780221421E13001F048FD96F83A30D3
:103050000B2B7FF4C7AE042323731AA802F076F972
:10306000924B182299691AA8043102F063F8284695
:1030700004F024FF294602461AA802F05BF804F186
:103080000D0504F2A9111AA802F014F93946C82254
:10309000284604F0B4FD94F8B01194F8AA3194F8DD
:1030A000A921059194F8AF112846049194F8AE1126
:1030B000039194F8AD11029194F8AC11019194F838
:1030C000AB1100917A4904F0BFFEDEE0402380227C
:1030D0000A217848009701F001FD402300978022E3
:1030E0001E2104F10D0001F0F9FC96F83A300B2B8B
:1030F00079E6002384F8C9316A4B1A686A4B1A6072
:10310000C3E0099B13F90A30202B00F0AF801A2787
:10311000A3F161020135192A95FBF7F207FB12555D
:103120003D4495FBF7F207FB125598BF23F02003AF
:10313000413B2B4493FBF7F207FB12333B4493FBD9
:10314000F7F207FB123336AA134413F9703CDFF889
:103150006C81413B33445B1B93FBF7F207FB12335B
:103160003B4493FBF7F207FB123336AA134413F9DF
:103170008C3C0DF13009413B5B449B1B93FBF7F208
:1031800007FB12333B4493FBF7F207FB123336AADB
:10319000134413F9A83C4846413BCBEB030393FB94
:1031A000F7F207FB12333B4493FBF7F207FB1233B2
:1031B000414AD356413B5B4493FBF7F207FB123382
:1031C0003B4493FBF7F207FB123318F9031004F0AA
:1031D0005FFEC9EB0000CBEB000090FBF7F307FBB1
:1031E00013033B4493FBF7F207FB1233334493FB87
:1031F000F7F207FB12333B4493FBF7F207FB123362
:103200000DF14C0918F90310484604F041FEC9EBD2
:103210000000801B90FBF7F307FB13033B4493FB79
:10322000F7F207FB12332B4493FBF7F207FB123341
:103230003B4493FBF7F207FB12330DF1680918F9D1
:103240000310484604F024FEC9EB0000401B90FB2D
:10325000F7F907FB1900384490FBF7F307FB13005D
:10326000069A18F8003002F8013B06920AF1010AAA
:10327000ACE63B68136094F8C9310133B3FBF0F25C
:1032800000FB123384F8C931D5E6079B1A46104675
:10329000089B13600023137137B0BDE8F08F00BFA7
:1032A000278E0008FC0E00202C0600207C0F00203A
:1032B0009F8E0008338E0008EE900008C48D000831
:1032C00010B5044604F078FC204610BD10B5044645
:1032D00004F072FC204610BD2DE9F04FB1F88C309F
:1032E000AFB005460C4692F83A200E46002B40F04F
:1032F0005C81013A0A2A00F2A081DFE812F00B009B
:103300009E019E019E019E019E0115009E019B0152
:103310009E0123004B8B2BB9898B002900F08D81F6
:10332000013907E0013B0BE04B8B032B07D1B1F8D0
:103330005810013189B2204602F060FF7DE101336F
:1033400063837AE14B8B142202FB0312B2F81CA0B8
:10335000BAF1000F00F0718101F17C02A64901274A
:103360000A604FF6FF72924504F1F009DFF89C8283
:10337000A4F88C7027D1DFF898B2A4F8A070C4F834
:1033800090B052469D49484604F05EFD9C4BC4F8FF
:10339000A490C4F8B830C4F8CC3094F8D030A4F875
:1033A000B4703B4384F8D0300023C4F8D43084F8A0
:1033B000D8300423A4F8C870A4F88A30A8F80CA068
:1033C000C8F810B039E104EB8303DB6EA4F8A070F9
:1033D00003F162028949C4F8902048461A8804F033
:1033E00033FD638BC4F8A49004EB8303DA6EA4F876
:1033F000B470911C087E4B7892781690C87D04F1C9
:10340000FC091590887D1490487D1390087D1290DA
:10341000C87C1190887C1090487C0F90087C0E909E
:10342000C87B0D90887B0C90487B0B90087B0A90A2
:10343000C87A0990887A0890487A0790087A0690A6
:10344000C8790590887904904879039008790290AA
:10345000C87801908978484600916A4904F0F4FCE4
:1034600094F8BC30C4F8B89043F0010384F8BC3041
:10347000638B4FF00009C4F8C09084F8C49004EB4B
:103480008303DA6EA4F8C87002F1320191F82F00BC
:103490004B7892F832202D9091F82E0004F59E770B
:1034A0002C9091F82D002B9091F82C002A9091F8F7
:1034B0002B00299091F82A00289091F82900279054
:1034C00091F82800269091F82700259091F8260081
:1034D000249091F82500239091F82400229091F8EF
:1034E0002300219091F82200209091F821001F9054
:1034F00091F820001E90C87F1D90887F1C90487F07
:103500001B90087F1A90C87E1990887E1890487E7C
:103510001790087E1690C87D1590887D1490487D80
:103520001390087D1290C87C1190887C1090487C84
:103530000F90087C0E90C87B0D90887B0C90487B88
:103540000B90087B0A90C87A0990887A0890487A8C
:103550000790087A0690C879059088790490487990
:10356000039008790290C8780190897838460091D4
:10357000254904F069FC94F8D03084F8D89043F0E1
:10358000010384F8D0300423A4F88A30638BC4F894
:10359000CC70C4F8D49004EB8304E36E33F8622B50
:1035A000A8F80C20C8F8103047E0FF2A45D0B1F841
:1035B0008A30142101FB034101F19007387910F0A2
:1035C000010F07D040F0010038710020C1F89800C9
:1035D00081F89C00013A00210A2A2ED8DFE802F087
:1035E000062D2D2D2D2D1A2D232D2C000BB9042346
:1035F00016E0013B14E000BF540500204B8E00088C
:10360000528E0008578E0008C08E000894130020C8
:10361000418E0008042B02D1A4F88A100DE001337A
:10362000A4F88A3009E0084B04F10C021A60A4F8EF
:103630008C1002E0054E00E0054E284600232E6067
:103640002B712FB0BDE8F08F540500209C0F002097
:1036500094130020F8B50C461D4B01F10C020646F0
:10366000002120461A6002F0C9FD21460022042AEA
:103670000BBF184B184BC4F8E030C1F8903014233E
:1036800003FB02430025A1F88C5093F8940001320B
:1036900065F30000052A83F8940001F1140103F199
:1036A0009003E4D129460C2204F1F00004F0A7FABB
:1036B0002946402204F1FC0004F0A1FA80222946A8
:1036C00004F59E7004F09BFA35703046F8BD00BFDB
:1036D00054050020868F0008C38D000838B50C46BD
:1036E0000546002914BF5D2255225A2101F0C4FA73
:1036F000002C2846BDE8384014BF7C2270225C2193
:1037000001F0BABA10B504460029017314BF0F22A4
:103710001A22132101F0B0FA237B43B11121204674
:1037200001F0BEFA00F01F0242F0600202E0E27A0D
:1037300042F080022046BDE81040112101F09CBA01
:103740007047704770470000024900230B60037008
:10375000704700BF5405002092F83A30072B0CD078
:10376000092B02D0012B0ED101E009490BE04B8B54
:103770000BB9072306E0013B04E04B8B072B0CBF82
:10378000002301334B83002301600371704700BFA6
:103790009C0F002010B5044B01F10C041C600023A9
:1037A00081F86530037010BD5405002010B5034C3E
:1037B000002323604B83037010BD00BF540500201D
:1037C0002DE9F843384C0D46064607212046904621
:1037D00001F066FA08210746204601F061FA092146
:1037E0008146204601F05CFA00EB074000EB09201F
:1037F00004F0C0FF2D4905F015F805F063F92C49D8
:10380000024605F1800004F01FFB2421204601F050
:1038100047FA404200B2022290FBF2F2254905F13C
:10382000940004F011FB2921204601F039FA2249C5
:10383000024605F1A80004F007FB1821204601F01C
:103840002FFA1E4900F0380205F1BC0004F0FCFA22
:10385000236801212046DB6A984708224E21204632
:1038600005F1D00701F008FA4E210F4801F018FACF
:1038700000F0040000F0FF040028F5D14F210A48B1
:1038800001F00EFAC0F1A502D2B20D49384604F09B
:10389000DBFA98F83A200B4B3471092A08BF1D4611
:1038A00030463560BDE8F8836C0F00200024744278
:1038B000099100081891000821910008349100082E
:1038C0003D9100089C0F002070B50C4605460E4B3C
:1038D00001F1800601F10C021A60002164223046D9
:1038E00004F08DF904F19403636304F1A803A36465
:1038F00004F1BC03E36504F1D003236700232662CF
:103900002B70284670BD00BF5405002038B5054611
:1039100008460024054B81F864400C2221465830AB
:103920001C6004F06CF92C70284638BD540500204A
:1039300010B5044604F040F9204610BD10B5044609
:1039400004F03AF9204610BD10B5044604F034F9ED
:10395000204610BD2DE9F0434C4B01F10C0201F162
:10396000BC051A600C46ADB0C02200210746484E87
:10397000284604F044F9474A4749284604F064FAC7
:10398000304602F04DF84549024604F1D40004F0F7
:103990005BFA94F97C3104F1EC0904F5BE787BBB49
:1039A00010A801F0D3FCB1691822043110A801F06D
:1039B000C1FBB3692CA95B88022221F8923D10A8B3
:1039C00001F0B8FB08A910A801F074FC9DF82710BD
:1039D0009DF8213005919DF826109DF82020049136
:1039E0009DF82510404603919DF8241002919DF802
:1039F000231001919DF822100091294904F024FA26
:103A00004246DFF8C4802749484604F01DFAD8F83A
:103A100000202549C2F30B0204F5827004F014FA69
:103A2000D8F80020214B93FAA3F3B3FA83F320498B
:103A3000DA4004F58E7004F007FA1E4A1E4904F5B8
:103A40009A7004F001FAB3691C495A8804F5A6700B
:103A500004F0FAF91A4A1B4904F5B27004F0F4F9BB
:103A60002246002393830133082B156205F11805C4
:103A700002F11402F6D104F14400FEF7C3FE384609
:103A800000233B702DB0BDE8F08300BF540500203B
:103A90007C0F0020880F0020469100084C91000800
:103AA0009F8E00085D910008659100080000FFFFEF
:103AB00070910008000300017B9100088C910008C0
:103AC000949100089D910008002004E010B592F840
:103AD0003A200446013A0B4600200A2A3CD8DFE887
:103AE00002F0063B3B3B3B3B0D3B123B14004A8B39
:103AF0000AB9082200E0013A4A832DE04A8B082ADD
:103B000001D00132F8E7488326E04A8B072A23D800
:103B1000DFE802F004061517191B1D1F114B1BE0EF
:103B2000114B93F90C30B3B9104800F0CFFF104B94
:103B3000104A1A6540F6B832A3F84C200CE00E4B40
:103B40000AE00E4B08E00E4B06E00E4B04E00E4B75
:103B500002E00E4B00E00E4B236000232371204651
:103B600010BD00BF040F00207C0F0020A6910008AC
:103B7000401300209C0F0020B41400206C10002083
:103B8000300C0020DC0A002008090020180E00205C
:103B9000E81300202DE9F04791F8653088B0642BD8
:103BA00080460C4617460D464FF0000667D001D8F8
:103BB0003BB162E1652B00F09B80662B00F0D18069
:103BC0005BE192F83A30013B0A2B00F25681DFE8C4
:103BD00013F00B005401540154015401540112001C
:103BE00054011501540118004B8B0BB9022300E05E
:103BF000013B638341E14B8B022B0CBF002301335C
:103C0000F7E78B7E0026643381F865309F4B1E609A
:103C1000FEF73AFC94F86530652B20D0662B28D04F
:103C2000642B40F02A8158340C223146204603F0A0
:103C3000E6FF974B5A785C6002F0FB0242F0080204
:103C40005A7020221A720C225A811A88DE6066F39A
:103C500009021A80FF221E745E611A760DE18D4BF7
:103C60009B68D3F80230C3F30363013384F86430F4
:103C700003E1FF2387F8396087F83830FDE04023FF
:103C8000802200960A21844800F028FF814A92F998
:103C90000C3091462BB900938022402314217F4899
:103CA00005E0009640238022142109F10C004FF01A
:103CB000000A00F013FF402380221E217848CDF82F
:103CC00000A000F00BFF72493846FEF7AFFD97F8F1
:103CD0003A3004F158060B2B40F0B98094F9583073
:103CE00033F0200200F0B3805F2B40F08980AEE01B
:103CF0004023802200960A216A4800F0EFFE97F8E0
:103D00003A30A3F10902012A20D9FF2B1ED00B2B38
:103D100040F0AD805F4894F86420836804A9D3F82C
:103D20000230614E04931B0E62F303038DF81330CF
:103D3000FEF768FE5D4D002800F092805C4800F0C0
:103D4000C5FE2E654FF4FA63A5F84C3094F8643044
:103D5000584A04F15806D2565749304604F074F8D0
:103D600075E0402380220A215448009600F0B6FEF8
:103D7000402380221E215248009600F0AFFE4023CF
:103D80000096802228214F4800F0A8FE97F83A308C
:103D9000092B33D00B2B70D1DFF83C913D4D4FF008
:103DA000340AFEF705F908ACC9F80CA06B6844F8B2
:103DB000146D2146012704A80693049605970797DA
:103DC00003F0EAFDFEF7EAF8284601F02CFEFEF7C4
:103DD000EFF8C9F80CA02B7F214603F500339B02B6
:103DE00006936B7F04A8013B0793049605970396FF
:103DF00003F0D2FDFEF7D2F8334B5E832A4D3CE050
:103E000084F863A02248FEF7A7FD0C2231462F4814
:103E100004F05CF8D9F8083008A9D3F802301D483E
:103E200041F8103DFEF7EEFD1F4C204D30B1284803
:103E300000F04CFE2C654FF4FA6305E0254800F0D5
:103E400045FE2C654FF47A63A5F84C3015E000234D
:103E50000093802240232821304600F03FFE0CE0F2
:103E60001C4800F033FE2E654FF47A636CE7082B94
:103E700088BF082384F8643068E740460023C8F808
:103E8000005088F8043008B0BDE8F08754050020E1
:103E9000FC0D00207C0F0020C9910008DD91000876
:103EA000E5910008129200089C0F002040130020AA
:103EB00032920008409200084A9200085592000889
:103EC000699200087B920008B4140020880F00203B
:103ED000F591000805920008002002407F2810B5E7
:103EE0001BD83F2919D80D4B1B7913B1B2FA82F2B6
:103EF0005209CC08012A0A4B01F0070100EBC4105B
:103F000004D18A40195C0A431A5410BD1C5C01227A
:103F100002FA01F124EA0101195410BD360700200C
:103F2000100000202DE9F74F7F2828BF7F207F2A2F
:103F300028BF7F223F299DF8304028BF3F213F2BDB
:103F400028BF3F2382420094914604460D461E46F8
:103F500006D9C0EB020A99420FFA8AFA70D30BE035
:103F6000C2EB000A99420FFA8AFA05D25F1A3FB2F1
:103F70004FF0FF3B01230CE0A1459CBF4FF0FF3BFE
:103F80005B46A5EB06073FB284BF4FF0010B4FF035
:103F9000FF3357454FF00208A5BF97FBF8F8C8F16B
:103FA00000089AFBF8F80FFA88F8BAF1000F13D15D
:103FB000B54282BF2B4635461E464C4528BF4C466F
:103FC000A4B22DB2B54240DCADB22946009A2046DB
:103FD000FFF784FF0135F4E71FBBB54228BF354624
:103FE000A1453EBF23464C469946ADB224B24C454E
:103FF0002BDCA4B22046009A2946FFF76FFF01345C
:10400000F4E7B54221D0CAF100029045C1BFC7EB29
:1040100008025C4412B2A4B2D8BF4246B8450ADBDB
:104020009046009A294620460193FFF757FF4C45DA
:10403000019BE8D1E5E752441D4412B2ADB2EFE76F
:104040005F1A3FB24FF0010B94E703B0BDE8F08F69
:104050002DE9F7431D46144606460F4683187F2B6D
:10406000C8BFC0F1800401EB0503C8BFA4B23F2B59
:10407000C8BFC1F140059DF82890C8BFADB24FF050
:1040800000085FFA88F3AB4208F101080AD83B4404
:104090009BB23219CDF8009092B219463046FFF724
:1040A00041FFEEE703B0BDE8F083000010B5002447
:1040B000A4F15000C0B201F0D7FB002001F0D4FB06
:1040C000102001F0D1FB044800EBC410013401F0D2
:1040D000A1FB082CECD110BD1000002070477047E8
:1040E00070472DE9F843B2F9023016460825DA1D6B
:1040F00020241F3392FBF5F593FBF4F40746894621
:10410000202D4FFA84F828BF20254146FDF7CDFC2D
:104110002A464946384602F02CFBB6F90230ED003B
:104120009D421FD9ED1A002207EB84039F420AD259
:1041300053F8041D21FA05F002431A60C5F120026C
:1041400001FA02F2F2E71C36424639463046FDF7E4
:1041500027FC012806D0324639463846BDE8F843E8
:1041600001F01EB9BDE8F8832DE9F3471FFA81F984
:10417000B9F17F0F80460D461F469DF828A09DF897
:104180002C60144608D83F2A06D8009653463A4673
:1041900021464846FFF75CFF124B01345A7808F17C
:1041A000FF38C2EB0A0A02229AFBF2FA0E4A544482
:1041B000A2F80090548099462C4618F9010F70B16E
:1041C00099F8003023447F2B09DCEA19934206DA80
:1041D000B6FA86F14909DCB201F068FBEDE702B0FE
:1041E000BDE8F08710040020360700202DE9F04FCD
:1041F000B3F902601D4693F900401F36202396FB59
:10420000F3F680461746DFB076B2002306F1FF3999
:104210001CAA42F829305EAA02EB890242F8903CBF
:1042200042F8783C8B4695F90120014652A802934A
:1042300002F09FFAA30052AA02EB030A95F90120AB
:10424000504608EB0201059302F093FA394695F9BE
:1042500001203AA802F08DFA95F9012040A8B9187A
:1042600002F087FA21463AA8FDF7F8FB029B0746C1
:10427000002840F02881214640A8FDF7EFFB02907E
:10428000002840F0228105F11C0832463AA9404638
:10429000FDF786FB012840F01A81324640A94046CE
:1042A000FDF77EFB0128049040F011813346424621
:1042B00040A916A802F04AFC0AAF029B59463846AC
:1042C0002A4647F82930FFF70CFF3946384643465F
:1042D00016AA0096FDF7F4FB0DF58C79434616AA55
:1042E0003AA910A80096FDF7EBFB4846224652A9D2
:1042F000FDF780FBA30009EB030B5146584622460D
:10430000FDF778FB05F134031946224628A80393EC
:10431000FDF770FB039BA100591822462EA805F15A
:10432000040AFDF767FB4946534628AA16A801F080
:1043300073F85B464A462EA928A8009502F089FB2F
:1043400016A908462346524602F000FC16AA594612
:1043500048462B4602F0DBFB029B31460693039B4B
:104360003846079352AB0893CDF82490FDF74EFBE7
:104370003146814610A8FDF749FB4845B8BF48467D
:104380001FFA80F909F1FF331BB219463846029330
:10439000FDF75AFB029B071C194610A818BF0127FE
:1043A000FDF752FB002814BF022300231F430DF129
:1043B000180B5BF82770224639461CA8FDF71AFB3C
:1043C000A300F918224622A8FDF714FB214616A8DF
:1043D000FDF76BFB049BA9F1020916930FFA89F90B
:1043E000B9F1000F0DF1700B40DB2B4616AAEF6FF1
:1043F00022A95846B84749460AA8FDF725FB494671
:10440000071C10A818BF0127FDF71EFB002814BFCA
:1044100002200020384306AB53F820701FB3224619
:10442000394628A8FDF7E6FA059B2246F9182EA87A
:10443000FDF7E0FA2B4616AA2EA928A802F067FB82
:10444000534628AA594634A800F0E6FF22AB5A4644
:104450002EA928A8009502F0FCFA16A92B4634AA2A
:104460000846FDF761FA09F1FF39B7E716A90846D2
:104470002346524602F06AFB2B4616AA22A958464A
:1044800002F045FB324659464046FDF789FA0128BD
:1044900004D042465946584600F082FF013C64B2BF
:1044A0000020002C0BDB5EAB03EB84035BF82420C5
:1044B00053F8903C013C5340184364B2F1E7B0FA22
:1044C00080F0400904E0184602E0384600E0029817
:1044D0005FB0BDE8F08F2DE9F04FA5B02E9C0490A1
:1044E00094F9008012A8924642461D460591FDF7B8
:1044F00081FA4FEA88030293029A059B1EA813448F
:10450000194642460393FDF775FA94F9006006A830
:104510003146FDF7CAFA0123324612A90CA80693C8
:10452000FDF768FA32461EA918A8FDF763FA23467C
:1045300006AA1EA912A802F0EAFA234606AA1EA994
:1045400012A8E66FB047234606AA18A90CA802F0E5
:10455000DEFA023D2DB2002D25DD29465046FDF73D
:1045600073FAB0FA80F040091823C0F101075F43E5
:1045700003FB00F60CAA02EB070B0CAB18AA03EB2B
:1045800006091744164433464A46394658460094AD
:1045900002F0DAF900943B465A463146484602F0AA
:1045A00058FA013DD6E7DAF80030182503F0010388
:1045B00083F00103C3F101066E435D430CAA971912
:1045C0000CAB18AA164403EB0509154404F1040AC0
:1045D00000942B464A463146384602F0B5F9534618
:1045E0000CAA12A906A800F017FF06A92346324616
:1045F0000846FDF799F906A92346059A0846FDF7EE
:1046000093F906A943465246084602F09FFA06A9C6
:104610002346039A0846FDF787F906A923463A463A
:104620000846FDF781F9009433463A462946484644
:1046300002F00FFA234606AA18A90CA802F067FA9E
:1046400042460CA90498FDF7D5F9049B029C42460A
:10465000234418A91846FDF7CDF925B0BDE8F08F21
:104660002DE9F04FAFB0DDF8E0B00B93BBF90230AD
:10467000556916691446029320221F3393FBF2F307
:104680009BF901705BB20393059006912E440023C1
:104690002269934205D20122F2540022EA540133E6
:1046A000F6E72946204600F0F8FE23690022F2547E
:1046B000226931460132204600F0EDFE3A46059966
:1046C000204600F0E8FE20220699204600F0E3FE96
:1046D0002A462946204600F0ADFE324629462046AD
:1046E00000F0FEFE2946204600F0D7FE2369012295
:1046F000F254226931460132204600F0CCFE3A469F
:104700000599204600F0C7FE20220699204600F0B9
:10471000C2FE2A462946204600F08CFE3246294633
:10472000204600F0DDFE039B029A9B000C93039B46
:104730005B0108939B1A1BB24FF0FF3222FA03F37E
:104740000D9340230993002732462946204600F066
:10475000C7FE3146226932449142F5D011F8010B6F
:104760000DF1B80E7B1C774407F8780C0C985BB2FF
:10477000834201DA1F46EFE7029B089A93420ADA66
:10478000039B2EAA013B02EB830353F8782C0D996F
:104790000A4043F8782C9BF900300DF158090DF1CF
:1047A0007008194610A8CDF83890CDF83C800493D5
:1047B000FDF754F9D8B12946204600F06EFE236972
:1047C0000027F754226931460132204600F063FE8B
:1047D0002A462946204600F02DFE3246294620462C
:1047E00000F07EFE099B013B0993ACD190E0BBF940
:1047F000023020270A931F3393FBF7F70BF11C0AB3
:104800007FB23A4610A95046FDF737F901280790C4
:10481000D1D15B464246494610A802F06DF8B0FA85
:1048200080F00A9B2EAA400902EB8000CDF800B070
:10483000013350F8802C1BB20BF1340122A8FFF792
:104840004AFE049922A8FDF709F90A900028B2D17E
:1048500039464846FDF729F9079B10A908461693E3
:104860004A4653460097FDF72BF910A908463B46E8
:10487000524602F06BF910A9534608464A46009783
:10488000FDF71EF922AA9BF901100B9801F0EAFF2F
:10489000BBF902300822073393FBF2F20599484630
:1048A00001F067FF0A9A2EAB03EB870343F84C2C09
:1048B00022A9049A4046FDF79DF8534642464946D0
:1048C00040460097FDF7FCF85A4606994846FFF720
:1048D00008FC53464246494640460097FDF773F8A8
:1048E000534610AA414640460097FDF7E9F839467D
:1048F0004046FDF78BF89BF90110B0EBC10F3FF775
:104900005AAF0B9B42460B44184601F0ABFF079F82
:1049100038462FB0BDE8F08F2DE9F0410446F4B0E1
:1049200001F06EF9B4F8C860002E64D1272840F277
:10493000A5805E4D01F016F92F78012F40F0B1806F
:104940002946282204F1140003F04EF916A800F0BD
:10495000FDFC05F11A01022216A800F0EBFB19225A
:10496000691C16A800F0E6FB02A916A800F0A2FC3C
:104970008822314652A803F042F94D4B4D4D5293D7
:104980004D4BA86953934D4B52AA549340235593D2
:104990002023569332AB5793494B02A9009304301E
:1049A0000AABFFF75DFE2846022384F83C3050F83E
:1049B000183F5B88A4F85630FDF7F8FF192201462E
:1049C00004F13D0003F010F90C22A91804F158007D
:1049D00003F07CFA30220AA904F1640003F004F920
:1049E000582104F13C0001F01DF9364BA4F8C870C1
:1049F0001B68236155E0012E55D1302845D92B4D38
:104A00002B78032B3ED104F1150801F0ABF8294FA8
:104A10002B4A32A9404601F039FF52A800F096FC1B
:104A2000BB6902225B8802A952A8ADF8083000F0E9
:104A300081FB07F11800FDF7B9FF1922014652A8C2
:104A400000F078FB013516A952A800F033FC1C4B8E
:104A50002A4616A932A8FFF7C9FB68B104F130064F
:104A6000E18D3246009543463846FEF745F832461A
:104A700015490AA803F0E8F901F0A4F80023A4F806
:104A8000C83010E001F06EF8F6E70E4B22691B68A3
:104A90009B1AA289934206D90023A4F8C63001F0DC
:104AA00061F801F08FF874B0BDE8F08134060020A1
:104AB0003D5900087C0F0020375900083159000883
:104AC00090920008FC0E00201C9300080146402232
:104AD000014803F0FBB900BF4C1300202DE9F74F4C
:104AE0008DB23F2D0746884692469B469DF83090F2
:104AF00005D8CDF8009029460020FFF7A9FA184EF6
:104B00000024758045463480013F17F9012F1AB300
:104B100014490B78E018802805DC504503DC0A2A8C
:104B200001D00D2A0AD14A7808EB0B011544EDB2E9
:104B30002A4400248A42348075800DDC97F90000F5
:104B40001C440A28E4B2E0D00D28DED0B9FA89F17D
:104B5000490900F0ABFED8E703B0BDE8F08F00BF15
:104B6000360700201004002008B50D4A03461178CE
:104B70000429114612D01278032A08D1094A127862
:104B80002AB103680121DB6A9847012008BD0A7831
:104B9000032A03D01A681846926A9047002008BD7D
:104BA000000F00205008002010B5054C0123237091
:104BB000044B186803681B6A98470023237010BDD4
:104BC00013050020D00400202DE9F04F04460F46C5
:104BD00091469A4685B09DF838809DF83CB00026F5
:104BE0002368012200921D684A46534639462046F2
:104BF000A847124D2A682B6803929B1A5B4514D272
:104C0000236820469B689847039A0028F3D00C4BF2
:104C10001B889BB29F4203D04FF6FF739F42EAD19D
:104C2000084B1B78002BE6D004E00136F3B2984520
:104C3000D6D2002005B0BDE8F08F00BFFC0E0020EA
:104C4000CC04002035070020024B10221A61024BD1
:104C50001B7870470008014013050020024B4FF4F9
:104C600080121A61704700BF0008014010B5044669
:104C700002F0A2FF204610BD70B50E461546044650
:104C800003685B6B984746F0800001F03FF92846C7
:104C900001F03CF923682046BDE870409B6B184743
:104CA00038B50D46036804465B6B984705F07F00F6
:104CB00001F02CF9002001F029F90546236820466F
:104CC0009B6B9847284638BD164A002310B51370D1
:104CD000154A28211380154A04461380144A13707C
:104CE000144A1370144A1370144A1380FFF7D8FF44
:104CF00043070AD53D212046FFF7D2FF40F00402CA
:104D0000D2B23D212046FFF7B7FF204625214022A1
:104D1000FFF7B2FF23682046BDE81040DB6A03219D
:104D2000184700BF12050020CC0400208604002094
:104D3000500800203407002035070020840400209C
:104D40002DE9F041524B04461A781D46032A04D13E
:104D50002821FFF7A5FF430714D42B78042B04D197
:104D600023680121DB6A2046984724212046FFF76B
:104D700097FF4042022300B290FBF3F0454B1880AE
:104D8000BDE8F08123680121DB6A2046984723684B
:104D900020465B6B9847002001F0B8F8002001F036
:104DA000B5F83D4D28702B78422B21D82B78DBB2FB
:104DB00000202B7001F0AAF8384E000280B230803B
:104DC000002001F0A3F833881843A37A80B2308022
:104DD00053B9338822899BB29A4205D04FF6FF72AD
:104DE00033889BB2934205D12B78022B02D90DE078
:104DF0004223DDE700232B70236820469B6B9847F6
:104E000023682046BDE8F0419B6A1847224B244D99
:104E10001B780020053BDBB22B7001F077F8214EA8
:104E2000000280B23080002001F070F8338818430F
:104E300080B23080002001F069F82E4620F07F0318
:104E4000194ADBB2137000F04000184BC0B2187062
:104E500000233178DDB28D42114A03F1010706D2F9
:104E6000002001F053F8124B58553B46F1E71378F8
:104E70003C2B04D813780E4ADBB20021D1542368AE
:104E800020469B6B984723680321DB6A6BE700BFD2
:104E9000000F002084040020500800208604002019
:104EA00012050020CC040020350700203407002024
:104EB000D50400202DE9F0471D4603688846DB6ACB
:104EC0000121044617469DF820609DF824909847DC
:104ED00027212046FFF7E4FE0306F9D5002225210D
:104EE0002046FFF7C9FE3D2D28BF3D25B9F1000F33
:104EF00004D1002E0CBF0026402600E08026236847
:104F000020465B6B9847802001F000F8681DC0B216
:104F100000F0FCFF4FEA182000F0F8FF5FFA88F07D
:104F200000F0F4FF2089000A00F0F0FF207A00F082
:104F3000EDFF304600F0EAFF3E46F31BDBB29D4238
:104F400004D916F8010B00F0E1FFF6E723682046CC
:104F50009B6B984723682046BDE8F047DB6A042135
:104F6000184700002DE9F04F1C4B92461C4E0022C2
:104F7000DFF874B01A7085B089463D213488054643
:104F8000BBF80080FFF78CFE164F40F00402D2B24F
:104F90003D212846FFF770FE3B68A4B203932846E4
:104FA00001F00EF92A6848B93B6803995B1AB3F51A
:104FB0007A7F03D2936828469847F0E700200123C0
:104FC0008DE80900E1B23180546A53464A462846CA
:104FD000A047ABF8008005B0BDE8F08F3407002093
:104FE000CC040020FC0E0020840400202DE9F743AF
:104FF0000E463D21044617469846FFF751FE134DD5
:1050000040F00402D2B23D212046FFF735FED5F82C
:105010000090204601F0D4F8226848B92B68C9EB0B
:105020000303B3F57A7F03D2936820469847F0E7ED
:10503000002301939DF8283031460093556A43467A
:105040003A462046A84703B0BDE8F083FC0E002096
:105050001F29037B28BF1F2110B50446C1720BB165
:105060004908C17211212046FFF71AFEE37A00F0C9
:10507000E0021A432046BDE810401121FFF7FCBDB5
:1050800070B52A4D04462B780E468B424CD004292D
:105090004AD8DFE801F0372F271403000121FFF77A
:1050A000FFFD00F0E30242F00C0201212046FFF771
:1050B000E3FD237B7BB3236801211B6B0FE0012100
:1050C000FFF7EEFD00F0E30242F01002012120465E
:1050D000FFF7D2FD237BF3B1236800211B6B204631
:1050E000984718E00121FFF7DBFD00F0E30242F0F2
:1050F00008020CE00121FFF7D3FD00F0E30242F0CB
:10510000040204E00121FFF7CBFD00F0E3020121DE
:105110002046FFF7B1FD2B782BB927212046FFF75A
:10512000BFFD0306F7D52E7070BD00BF000F002035
:10513000704700002DE9F04FD0E90845D300E4188E
:1051400045F10005C0E90845CBB08B180993099BD0
:105150008B4200F0A980836E11F8014BC218013315
:10516000402B82F828408366F1D10346002593F84E
:10517000292093F82840120442EA046293F82B4055
:105180000433224393F8264042EA04220AAC6251D7
:105190000435402DEBD1234610279E6B1C684FEA47
:1051A000F64585EA764585EA96265D6A5A682C4476
:1051B00035194FEAB24484EAF21484EAD202013784
:1051C0002A44402F1A6403F10403E6D103684FF028
:1051D000000901934368019C02938368DDF808E0AD
:1051E0000393C368039F04930369DDF810A005933C
:1051F000436906938369DDF818800793C369DDF876
:105200001CC008931D46059B294E4FEAF32B8BEAE1
:10521000B31B8BEA736256F829B00AAE56F82960C0
:1052200009F10109B344934403EA08062CEA030296
:1052300056405E44354487EA0E0B4FEA74360BEA5B
:10524000040B86EAB4060EEA07028BEA020286EA3B
:10525000B4561644B9F1400F05EB0A0B2E44BA467A
:10526000654606D07746C446A646984634465B4611
:10527000CAE7019A32440260029A22444260039AC9
:1052800072448260049A3A44C260059A5A440261A8
:10529000069A1A44079B426143448361089B634416
:1052A000C3610023836652E74BB0BDE8F08F00BFB7
:1052B0002C930008836E2DE9F0474124B3FBF4F4EE
:1052C000074604EB84140E46A0B0403400F12701D9
:1052D00000229A4201D11A4605E011F8010F0DF89B
:1052E00002000132F5E7A24204D200210DF80210BB
:1052F0000132F8E720AA1344802203F8802C0DEB3A
:10530000040A0025D7E908892A464046494603F0A1
:105310006FF90835402D0AF8010DF5D10025BD665D
:10532000224669463846FFF705FF2B46F01818223B
:10533000F958D140083A12F1080F00F8011BF7D1D3
:105340000433202BF2D120B0BDE8F0870D4A0E4B7C
:105350000E49DFF848C080E80E100D4B00220361B3
:105360000C4B43610C4B836103F17453A3F523038E
:10537000A3F69243C361002383660023C0E9082398
:10538000704700BF85AE67BB72F36E3C67E6096A83
:105390007F520E518C68059BABD9831F3AF54FA500
:1053A00030B5002310C920CA641B10C010C920CA20
:1053B000AC4110C010C920CAAC4110C010C920CAED
:1053C000AC4110C010C920CAAC4110C010C920CADD
:1053D000AC4110C05B41B3FA83F0400930BD30B539
:1053E0000346002010C920CA641910C310C920CA7E
:1053F0006C4110C310C920CA6C4110C310C920CA27
:105400006C4110C310C920CA6C4110C310C920CA16
:105410006C4110C3404130BD38B504461D46FFF70E
:10542000BFFF30B12A4621462046BDE83840FFF78D
:10543000D6BF38BD70B5044616464369056903EB0F
:10544000450500232269934205D2CA5C82F05C02C2
:10545000EA540133F6E72B44E1685A1B914203D921
:105460005C2203F8012BF7E73146A36820469847F2
:105470002368204698476368E26829462046984793
:1054800063683146204622699847A3683146204622
:10549000BDE8704018474368184770B50446436933
:1054A000056903EB450500232269934205D2CA5CD6
:1054B00082F03602EA540133F6E72B44E1685A1BC6
:1054C000914203D9362203F8012BF7E723682046DF
:1054D00098476368E26829462046BDE8704018474F
:1054E00070B5044615460E46FFF7D7FF22692946D8
:1054F0002046FFF7D0FF2A4631462046BDE87040DF
:10550000FFF798BF70B51446B2F90230A2B0073366
:10551000082293FBF2F20E46014604A801F029F995
:10552000B4F9025020221F3595FBF2F56DB22946E1
:1055300004A8FCF793FA08B100203AE02A4604A92F
:1055400004F11C00FCF799FA01280546F4D10AA9D8
:1055500010AA234604A80291039201F0CDF9B0FAF3
:1055600080F0638822AA400902EB80000094013396
:1055700050F8802C04F1340116A81BB2FEF7ABFFE3
:10558000217816A8490049B2FCF768FA0028D3D15F
:1055900016AA94F90110304601F064F994F901104B
:1055A00094F9002016AB701803EB820201F05AF94F
:1055B000284622B070BD0000F7B5554C012384F891
:1055C0003430236816461A680F4622F400621A60C7
:1055D000212284F835200021102284F83620A1638E
:1055E0001A68054642F480721A604FF001100A22D0
:1055F00002F066FAD8B92369B3F5804F03D1236866
:1056000005F0FE050CE0EB11226803F0060343F001
:10561000F00313613F4802F093FA38B92368EDB202
:105620001D613D4802F08CFA002837D0A36BA26BB5
:10563000374B042A4FF0000202D183F834202BE0CC
:1056400083F83420032060E03A78791C1A615D69A0
:10565000721E6D0792B228D416460F462F4966B3C4
:10566000D1F800E05A6912F08005EDD15A6912F4C0
:1056700080623BD05A6922F480625A610422A2639C
:10568000202284F8352084F83450A26B042AD9D122
:105690001A6842F400721A60012036E023685A69E1
:1056A00001929A690192019AD8E7002AD4D07A78B7
:1056B000B91C1A61B21E92B2CEE70E6807E05A69B1
:1056C00012F48062D6D10D68AD1B0A2D13D85A6929
:1056D00012F00405F3D01A6842F400721A60202315
:1056E00084F83530002384F834300EE00D68CEEBBA
:1056F00005050A2DB6D9A16B84F8342041F02001AC
:10570000A163202184F83510BFE703B0F0BD00BFCE
:10571000D01600200800010002000100FC0E00204D
:1057200030B51B4C1B4A256851B91368996830EA9B
:1057300001012BD02168491BB1F57A7FF6D909E028
:105740001368996830EA010120D12168491BB1F53D
:105750007A7FF6D9596821F0E0015960196821F083
:1057600040011960916AB1F5005F07D1196821F411
:1057700000511960196841F400511960012382F841
:105780005130002382F85030032030BD002030BD5E
:10579000FC0E00203C07002002460168022380F82E
:1057A00039308B6823F47F4323F077038B608B6859
:1057B00023F007038B60012380F83930002082F842
:1057C0003800704713B5044608B390F8393003F039
:1057D000FF0283B9036880F83820B3F1804F0AD103
:1057E00003F50433DA6942F00102DA61DB6903F0A0
:1057F00001030193019B022384F839302068211DA5
:10580000FCF74AFA012384F83930002000E0012037
:1058100002B010BD10B54023C2B08DF804300DF1B8
:105820000502431E803013F8011F834202F8011B5A
:10583000F9D10B4C94F83530202B0FD142F2107275
:105840000121084802F03CF940B994F83430012BAA
:1058500004D0812201A97820FFF7AEFE42B010BD2E
:10586000D01600200200100013B50E4C00238DF856
:10587000043094F835308DF80500202B0FD142F21A
:1058800010720121084802F01BF940B994F8343035
:10589000012B04D0022201A97820FFF78DFE02B06F
:1058A00010BD00BFD0160020020010002DE9F84303
:1058B0004FF0000906460F464D461B4B5A78984656
:1058C000AA4228D9002498F8002004EB0903A24238
:1058D00015491DD98A784968D80806FB0212125C5E
:1058E00003F0070342FA03F313F0010F08BFB7FAFE
:1058F00087F20E4B18BF3A4659881888294420442D
:1059000008BF520989B280B2FEF7E8FA0134DAE73B
:1059100001359946D1E7054A1978138830460B447A
:105920001380BDE8F88300BF100400203607002074
:105930001830FFF7BFBC1830FFF7FCBB1830FFF77B
:1059400005BD10B5044602F037F9204610BD000031
:1059500070B5154C23682568DB08FF2B03D9134B62
:10596000FD221A7070BD05F007051149C5F1070247
:1059700030B9C85C012606FA02F220EA020205E00C
:10598000C85C012606FA02F20243D2B2072DCA54BD
:1059900005D1084D1944286802F056F8286023689C
:1059A0000133236070BD00BF980700200C08002061
:1059B000340600209407002070B50646072446FAF6
:1059C00004F30F4D13F0010F4FF004032B614FF45C
:1059D000C87007D101F07AFC4FF480232B614FF49B
:1059E000C87006E001F072FC4FF480232B614FF485
:1059F000966001F06BFC14F1FF34E0D270BD00BF83
:105A000000080140044B00225A62044B6FF001026F
:105A10001B681A6102F02EB80004004070160020C6
:105A20008368D8787047426813B5114602F58063E1
:105A300099420ED24DF6DC430C889C4207D10C22D1
:105A400081600631104402F041FA012016E0123163
:105A5000ECE7836001238DF807309DF806300321C1
:105A600003F0F003002261F3071301A98DF804206D
:105A70008DF806308DF80520FCF7C4FF02B010BD8C
:105A800070470000324B70B5324C5E6A03F58233CA
:105A90009D6801F0FDFF237805F008055BB2C8366C
:105AA000042B4BD8DFE803F00309151A3600002D4C
:105AB00044D1FFF7A7FF012309E000233DB1B6F56C
:105AC000487F04D9244A1360244A136002232370B8
