:020000040800F2
:1000000000500020DD020008BD7C0008C16500082A
:10001000BF650008BD650008BB6500080000000062
:10002000000000000000000000000000BF7C00088D
:10003000B965000800000000BF7C0008A965000841
:10004000BF7C0008BF7C0008BF7C0008BF7C0008A4
:10005000BF7C0008BF7C00088D650008BF7C0008DD
:10006000BF7C000875650008BF7C0008BF7C0008E5
:10007000696500085D650008BF7C0008BF7C00085A
:100080005165000845650008BF7C0008BF7C00087A
:10009000BF7C0008BF7C0008BF7C0008BF7C000854
:1000A000BF7C0008BF7C0008BF7C0008BF7C000844
:1000B000BF7C00086D640008BF7C0008BF7C00089E
:1000C000BF7C0008BF7C0008BF7C0008BF7C000824
:1000D000BF7C0008BF7C0008BF7C0008BF7C000814
:1000E000BF7C0008BF7C0008BF7C00080000000047
:1000F0000000000000000000000000000000000000
:1001000000000000000000005FF808F18846044687
:1001100083B50848466B876B856A074801F074FB16
:10012000CDF800803B4632462946204601F082FB4E
:1001300000BEFEE700ED00E0B18D000888460446F1
:1001400083B50848466B876B856A074801F05CFBFE
:10015000CDF800803B4632462946204601F06AFB36
:1001600000BEFEE700ED00E0BF8D000888460446B3
:1001700083B50848466B876B856A074801F044FBE6
:10018000CDF800803B4632462946204601F052FB1E
:1001900000BEFEE700ED00E0CB8D000808B501F0E1
:1001A00035FD364B364A37499A60374B374A384C1B
:1001B00038480B601360384DA84204D254F8045FED
:1001C00040F8045BF7E708683449884203D11168B6
:1001D000334A914200D0FEE73249334A0B60136044
:1001E000324B3348834203D2002043F8040BF8E734
:1001F0000B680BB9136803B1FEE72E4A2E4B51680A
:1002000001F00C01042901D0082901D02B490EE08E
:1002100051685068C1F38341C40301F1020102D562
:100220005068800301D5264800E024484143196006
:1002300052682449C2F30312895C1A68224CCA40EE
:100240001A60224B00251E46E41AA410AC4204DDBD
:1002500056F8253098470135F8E71D4B1D4C1E46D2
:10026000E41AA4100025AC4204DD56F82530984766
:100270000135F8E71849012000F04AF800ED00E0E8
:100280000000000800000020BABADECA7C0400208A
:1002900024A30008000000208004002078563412B7
:1002A0003254769880040020B0180020800400208A
:1002B000B4180020001002400400002000127A0050
:1002C00000093D00D88D00080C0300080C0300084D
:1002D0000C030008100300080800002008B5FFF711
:0402E0005DFF00BFFF
:1002E40028A30008000000208004002028A30008A0
:1002F400000000100000001080040020B41800204A
:0C03040000000010000000101174000840
:10031000A84A2DE980481368A74C43F010031360E6
:100320004FF6FF02E368B9B01A40A44BA44D134343
:10033000E36007F02FFB4FF6FF02AB696FF00B0095
:1003400043F00103AB61AB6903F001030C930C9B19
:10035000E3681A40994B1343E36007F005FB6FF025
:100360000A0007F001FB6FF0090007F0FDFA6FF0DB
:10037000030007F0F9FA4FF0FF3007F0F5FA914A61
:10038000536823F0E06343F0007353606B6803F03D
:100390000C03042B07D06B6803F00C03082B0AD165
:1003A0006B68DB0307D54FF4003393FAA3F22A6896
:1003B00093FAA3F33BE02B68834A23F480332B604A
:1003C0002B6823F480232B6014684FF4003393FAD6
:1003D000A3F17B48296893FAA3F3B3FA83F303F0FC
:1003E0001F0321FA03F3DE0708D513681B1B642BD8
:1003F000EBD9704A13685F076ED0A0E0036843F43E
:100400008033036010684FF4003393FAA3F1296836
:1004100093FAA3F3B3FA83F303F01F0321FA03F370
:10042000DC0704D413681B1A642BECD9E1E76B6872
:1004300003F00C03082BDCD04FF0807393FAA3F386
:10044000B3FA83F39B0003F18443002203F5840392
:100450001A605D4A14684FF0007393FAA3F158498B
:10046000286893FAA3F3B3FA83F303F01F0320FA87
:1004700003F3D80704D513681B1B022BEBD9B8E78D
:100480004B6823F400334B604B6823F4741343F43C
:1004900088134B604FF0807393FAA3F3B3FA83F39E
:1004A0009B0003F1844303F5840301211960106864
:1004B0004FF0007393FAA3F1296893FAA3F3B3FA08
:1004C00083F303F01F0321FA03F3D90791D41368D0
:1004D0001B1A022BECD98CE7136823F0070343F0B7
:1004E00001031360136803F00703012B74D16B68D9
:1004F000334923F0F0036B604FF0007393FAA3F2DB
:100500002A6893FAA3F3B3FA83F303F01F0322FAE2
:1005100003F3DA0760D54B6823F0030343F00203CB
:100520004B60294B19686A6802F00C02082A33D024
:1005300041F288301A68521A8242F4D94CE06B6852
:100540001F4923F0F0036B604FF0007393FAA3F29E
:100550002A6893FAA3F3B3FA83F303F01F0322FA92
:1005600003F3DB0738D54B6823F0030343F00203A2
:100570004B60154B19686A6802F00C02082A25D1F5
:100580000C4A136823F0070343F001031360136858
:1005900003F00703012B1FD16B6823F4E06343F4DE
:1005A00080636B606B6823F460536B6007F0F2F953
:1005B00012E000BF0020024000ED00E00003FA0559
:1005C00000100240000001409010002041F28830ED
:1005D0001A68521A8242CED96B6843F480036B606A
:1005E00001F08EFB4FF47A73B0FBF3F00138B0F1F9
:1005F000807F09D2A14BA24AF021586082F82310D3
:1006000000229A6007221A609C4A4FF0FF3013685C
:1006100024AC43F00403136007F0A6F9AB69994ECC
:1006200043F01003AB61AB694FF0030B03F0100311
:100630000B930B9BAB69214643F02003AB61AB6985
:10064000914803F020030A930A9BAB694FF001081D
:1006500043F00403AB61AB694FF0020903F00403FC
:100660000993099BAB69894F43F00803AB61AB6900
:10067000CDF894B003F008030893089B4FF460434F
:10068000249301F0C5FB824B00222146304626927E
:100690000292CDF89080259301F0BAFB4FF23A0315
:1006A000214630462493CDF89480CDF89C9001F0FB
:1006B000AFFB4FF44173214630462493CDF894B0FC
:1006C00001F0A6FB029A4FF4E063384621462592DA
:1006D0002493CDF8988001F09BFB21464FF4004312
:1006E00038462493CDF89480CDF89C9001F090FB8F
:1006F000684BDFF8C48133614FF000433B61062053
:1007000007F032F94023C8F800306B690C2043F041
:1007100001036B616B694FF4805903F00103079388
:10072000079B07F021F9C8F800900D2007F01CF98D
:100730004FF40053C8F80030102007F015F94FF4BB
:100740008033C8F80030112007F00EF94FF4003361
:10075000C8F80030029A504B5049DFF860819A6027
:10076000DA605A619A61DA611A6293F8352083E897
:1007700002014FF480410297DFF844A1196102F0B1
:10078000FF081F46002A45D183F83480C023214644
:100790003046249312232593CDF89CB001F038FB0A
:1007A000DAF81C303E4E43F40013CAF81C30DAF875
:1007B0001C304FF0100C03F400130D930D9B394BBC
:1007C0004FF0800A304686E80810C6F80880C6F860
:1007D0000CA0C6F81080C6F81480C6F81880C6F8B9
:1007E0001C9007F0F7F8FE6277622F4E2F4B3046D1
:1007F00086E80801C6F80880C6F80CA0C6F8108084
:10080000C6F81480C6F81880C6F81C9007F0E2F805
:100810003E6377623A68242387F83530136823F003
:100820000103136001F0DEFA214A2249B0FBF2F223
:100830007B683E688B428E4688BF4FF4967172602B
:1008400082BF4A434FF47A71B2FBF1F2734502F171
:100850000102326208D85B00B0FBF3F0C0F30B0377
:10086000032B98BF042038E0BA685ABB03EB43035C
:10087000B0FBF3F040F400402AE000BF10E000E0DD
:1008800000ED00E0000C01400010014000080140B4
:100890000000111000003AF06818002000540040D9
:1008A0009C0700206C000240D4070020800002401A
:1008B00040420F00A086010000E100E0801A06001F
:1008C0000010024019225343B0FBF3F040F44040C3
:1008D000C0F30B03002B08BF0120FA693B6AF061EB
:1008E000134333603A69FB684FF4827E1343B3606D
:1008F0007A69BB691343F3603368202243F0010334
:100900003360C04E0023BB63B36087F83520F360CB
:1009100087F83630BC4A33617361F36133627362C6
:10092000B3620A23F36296F8513086E804404FF42C
:100930008022B26103F0FF09002B61D1AB694FF057
:10094000030843F48053AB61AB69214603F4805341
:100950000E930E9BB0232493AC4802234FF0100A51
:100960002593CDF89C8001F053FA01232146A74836
:10097000CDF890A02593CDF89C8001F049FA029B18
:100980002146C3F810A0A1484023DFF8A082249399
:10099000CDF89490CDF8989001F03AFA9C4B4FF036
:1009A000800B88E8080440464FF4005AC8F80890C5
:1009B000C8F80CB0C8F81090C8F81490C8F818908F
:1009C000C8F81CA007F006F8C6F84080C8F82460F4
:1009D000DFF85C828F4B404688E80802C8F8089030
:1009E000C8F80CB0C8F81090C8F81490C8F818905F
:1009F000C8F81CA006F0EEFFC6F84480C8F82460D2
:100A0000B168706832680843F168022308433169AD
:100A100086F851300843716913680843F16923F07F
:100A200040030843316A13600843B369B16A08435D
:100A300003F40071014311601B0C716A03F004039D
:100A40000B435360F36A1361D36923F40063D361EA
:100A500000230122736586F851206F4E4FF08042CB
:100A600086E80C0030464FF49E62B3603361F2605A
:100A700005F016FA4FF48053129396F83830B146C9
:100A8000012B03D012A9304605F0F4F999F839305A
:100A900003F0FF0213B9604B83F838205E4E4FF02D
:100AA0000208311DD9F8000089F8398001F0F4F806
:100AB00099F8383001218B4289F8391013D0336806
:100AC00086F839805A6822F070025A605A685A6073
:100AD0009A6822F080029A609A689A60002386F8E9
:100AE000391086F8383099F838204B4B012A39D024
:100AF000022283F839201B6848481A6A834222F090
:100B000010021A62196A5A689E6921F0200E26F4B2
:100B1000E64646F4C0460ED1279821F0A00141EAEE
:100B20000011299822F4406242EA80022A9821F0BA
:100B3000400E42EA80025A604FF41E729E619A6330
:100B4000C3F820E09A6942F400629A619A6922F43B
:100B500080629A619A699A61012389F83930002389
:100B600089F83830D9F80030B3F1804F07D102232B
:100B700016A9264816931793199301F049F9284BA3
:100B8000284A4FF4E13683E8440000229A60DA6094
:100B90001A619A61DA6193F839200C21596102F0E7
:100BA000FF069846F2B983F83860EB69214643F4B2
:100BB0008023EB61EB691C4803F480230F930F9BA8
:100BC0004FF480632493022325930323279301F09A
:100BD0001FF94FF400632146134824932596269667
:100BE00001F016F9D8F800B0022388F83930DBF8A4
:100BF0000C30DFF82CA023F40053CBF80C30DBF8DA
:100C0000103017E044070020003001400008014088
:100C1000300002401C0002408C040020002C0140E7
:100C20001405002000480040000C0140540800203A
:100C30001808002023F44052D8F80C301343CBF8A6
:100C40001030D8F80820D8F81030DBF80C60D8F84D
:100C5000140042EA0301084326F4B05121F00C01CC
:100C60000143CBF80C10DBF81430192623F4407242
:100C7000D8F818301343CBF81430A14B9B4519D149
:100C800001F09AF87043DAF804209300B0FBF3F314
:100C90006422B3FBF2F31B010493059201F08CF87C
:100CA0007043DAF804309900B0FBF1F1039101F0E0
:100CB00083F818E001F096F87043DAF80420930006
:100CC000B0FBF3F36422B3FBF2F31B010493059230
:100CD00001F088F87043DAF804309900B0FBF1F1C4
:100CE000039101F07FF84643DAF80400059A80008A
:100CF000B6FBF0F0B0FBF2F00399049B02FB10117D
:100D000009013231B1FBF2F202F00F021A43D8F8B6
:100D10000030CBF808201A69002622F490421A61AC
:100D20005A6916A922F02A025A61DA68754842F413
:100D30000052DA600123C8F83C60042288F8393098
:100D4000179303231692199301F062F8029A4FF455
:100D500080231361082316936B4B16A969481793D8
:100D6000189601F055F8092006F0FEFD674B4FF488
:100D70000072C3F88020EB69654A43F00203EB611F
:100D8000EB69644D03F002031093109B4FF48058FD
:100D90002023284685E80C00AE60C5F80C802E6143
:100DA00005F07EF895F83830CDF89080012B03D00F
:100DB0002146284605F05EF82B686FF001021A61A3
:100DC0001D2006F0D1FD514B4FF000521A60D9F8AA
:100DD00000303DAD1A6A22F010021A621A6A42F01F
:100DE00010021A624C4A934202BF5A6C42F400420B
:100DF0005A641A6842F001021A6029AA12F80C0C0F
:100E0000002363F3000002F80C0C32F80C0C4FF4D2
:100E10007A7666F34C0022F8143C42F8103C22F833
:100E20000C0C42F8083C02F8043C1432AA42E5D10A
:100E30003A4A8DF85230129280228DF85420402286
:100E40008DF85520364A8DF85330ADF85630ADF850
:100E50005030136097F835301394202B314E324DBB
:100E6000904640F0FF80012142F210722F4806F0B8
:100E7000ABFE0146002840F0F58096F83430012B97
:100E800000F0F080012386F8343033681A6822F4C9
:100E900000621A60242286F83520B0631A684FF089
:100EA000011042F480721A6044F6206206F08CFE53
:100EB000002840F0D780336878221A61D5F800E026
:100EC0005869596996F83520C0F34000C1F3802174
:100ED000D2B268BB61BBA02A2AD044F620612A683E
:100EE000CEEB02028A4284BFA02287F835205869DF
:100EF0005969C0F34000C1F3802197F83520E7E736
:100F000000380140000801400000311000E100E01D
:100F10000004004008180020002C01400C8C000840
:100F200054050020681800209010002002001000D6
:100F30004FF0200987F835905A69DFF824A312F0A2
:100F4000020F1A6842F400721A605A697CD011923A
:100F50009B6942F2107211930121B948119B06F06E
:100F600033FE064600287DD18AF83400AE208AF888
:100F7000359004F0E7FF484604F0E4FF102004F049
:100F8000E1FFB02004F0DEFFC82004F0DBFF3046B4
:100F900004F0D8FF102004F0D5FF402004F0D2FF69
:100FA000812004F0CFFFFF2004F0CCFFA12004F04B
:100FB000C9FFA62004F0C6FFA82004F0C3FF3F200D
:100FC00004F0C0FFA42004F0BDFFD32004F0BAFF5A
:100FD000304604F0B7FFD52004F0B4FFF02004F051
:100FE000B1FFD92004F0AEFF222004F0ABFFDA20DD
:100FF00004F0A8FF122004F0A5FFDB2004F0A2FFFC
:10100000484604F09FFF8D2004F09CFF142004F05C
:1010100099FFAF2004F096FF03F076FD894B012283
:101020004FF47A701E805E805A7101F041F9864B50
:10103000ADF890602593BDF850300133ADF85030D5
:1010400012ABC8F800300DE022F480625A61012131
:1010500042F210727A4806F0B7FD18B98AF8359056
:101060008AF83400794E01F0D9FF642001F020F9AC
:10107000304604F09CFB90B14DF6DC43B7693A88EA
:101080009A420CD13022002116A806F03CFE704A8C
:1010900016A9381D03F062F8002840F011830223DE
:1010A000ADF8A4306B4B2A93BDF850304FF02908AF
:1010B0000133ADF8503001F0B1FF642001F0F8F8D1
:1010C000B36938263246002116A85F8806F01BFE59
:1010D00003238DF85C308DF8613033238DF8633055
:1010E00007238DF864308DF86F3028238DF8703029
:1010F000DC2302214FF0080E8DF873302E230422DA
:101100008DF85A108DF85D108DF866E040214FF093
:10111000090E4FF0250C8DF874302F238DF85920CF
:101120008DF85E208DF85F1005228DF868E08DF84F
:101130006CC04FF0190E8DF86D108DF876302621A9
:101140002D234FF0370C01208DF860208DF86AE0D8
:1011500006224FF0420E8DF86E104FF088091021D4
:101160008DF877308DF87AC030234FF0900C8DF8E1
:1011700058008DF862208DF86BE08DF871108DF8B5
:1011800072808DF878308DF87BC08DF87C608DF89A
:1011900075908DF87DE08DF883308DF88B30FF23CE
:1011A0008DF88E30E4238DF865303D26C0238DF810
:1011B00080608DF867301226029B4FF08F0C8DF8FF
:1011C00081604FF06F0E8DF886804FF03C0A182634
:1011D0004FF0BE088DF879008DF87EA08DF87FC0A5
:1011E0008DF882E08DF884608DF885908DF8878089
:1011F0008DF888A08DF889C08DF88AE08DF88C6014
:101200008DF88D201448196102F058FB242805D070
:101210000123ADF8B830114B2F935AE02E68AA2263
:101220002F210D4802F036FB2F210B4802F046FB20
:10123000AA2800F051822B689B1B312BEFD94BE27F
:10124000020010003C070020178C0008101100203D
:101250009C940008308C000800110020488C000885
:1012600068180020BB4E0121304602F035FD3D21BB
:10127000304602F023FB3D2100F0FE02304602F032
:1012800009FB317B304602F02DFB0121304602F094
:1012900023FDD5F800802721AE4802F00FFB03069E
:1012A00040F13B822B68C8EB0303312BB0D8AA4B2B
:1012B00000221A70A94BAA4A37811A60A94B1F2134
:1012C0001E600123ADF8B830A74BA2482F9302F05F
:1012D000EBFCBDF8503064200133ADF8503000F025
:1012E000E7FF01F09BFE4FF47A7000F0E1FF9F4BA7
:1012F00000261E608022009640230A219C4804F0AC
:101300001BF900964023802228219A4804F014F902
:101310008022322140239848009604F00DF901F014
:101320007DFE40F6B83000F0C3FF944BA3F8C860D0
:1013300004F00CFB924E934A934B29681360F163BF
:1013400003920493029A4FF00043D5F80080136192
:101350008E4B4FF400221A614FF480121A614FF441
:1013600000121A6100239C461946D6F83C90DFF81B
:1013700010B2834800278F420DBFBBF81CA0B0F805
:101380001CA08269DBF8182007F1010708BF4FEAAB
:101390000A4A042FC2F810A000F10800EBD1002087
:1013A00003285FFA80FA13D0754F07EBC00E57F889
:1013B0003070BEF804E0BF6801301EEA070FEFD1BD
:1013C0009A445FFA8AFAD5F800904FF0010C01E0D8
:1013D0004FF0FF0A01310429694806D00333BAF1FE
:1013E000FF0FDBB20BF1080BC3D0BCF1000F01D033
:1013F000C0F83C9096F83820614B52450ED193F8D6
:101400003920013283F8392093F83A20FF2A0CD092
:10141000BAF1FF0F09D183F83AA006E083F83A2029
:10142000002283F838A083F8392096F84030BBB109
:10143000574B03F128000833984206D033F8042CA8
:1014400053F8081C12040A61F5E7029A4FF40043AE
:1014500013614E4B08221A6110221A6120221A6170
:10146000039BDFF840A11F687B6813F0010F3B6806
:1014700010D19B683946204698479DF89030002B44
:1014800040F052817B6843F001037B602B68BB60B6
:10149000B94618E0DB683A4A394620469847DDF8F5
:1014A00090909DF894B0B9450AD03B6839461B69C5
:1014B00012A898477B6823F001037B600023BB6080
:1014C000BBF1000F22D1039BDFF8DCB01F68B945E8
:1014D0001FBF002386F83930FF2386F838305F4578
:1014E00000F02D81F26B424580F02981DAF8083056
:1014F000C2EB0802D3F80230C3F303614EF6602357
:1015000001FB03339A4200F21E8118E1214804F0E6
:101510000BF8214B049A1A654FF4FA62A3F84C2099
:10152000039A13609AF90C3013B15F2B40F01A81C3
:101530001A4F97F8D032BB4613F0800F3DD02B687E
:10154000B3F57A7F3DD91649104A0B7873B3022060
:101550002EE000BF00110020130500201408002019
:10156000E9370008D00400203D8C00085405002015
:10157000558C00085D8C0008618C00087C150020EB
:101580002C0C0020C804002030110020000C014069
:10159000440C0020708C0008D4140020001200209D
:1015A000D404002010110020700C00204FF40030F3
:1015B00083F0010310610B7003E06C4B4FF40032B9
:1015C0001A616B4A1368C3EB08030A2B75D9694883
:1015D000C2F8008002F0E8F800286ED0664B674A37
:1015E000B3F800904FF6FF731FFA89F99945644BE1
:1015F00029D197F8D0024FF0420800F07F0008FB95
:1016000000B01B780021DBB2B2F800A00C303D2204
:10161000059306F078FB97F8D002059B00F07F0059
:1016200008FB00B03D2B28BF3D231A4655490C301E
:1016300006F05EFB97F8D0320FFA8AFA03F07F03C8
:1016400008FB03B82EE0504F4FF0420897F8D00245
:1016500093F800B000F07F0008FB00704B4B0021B6
:10166000B3F800905FFA8BFBB2F800A00C303D227B
:1016700006F049FB5A4697F8D0023D2A00F07F0059
:1016800008FB007028BF3D223E490C3006F030FBBD
:1016900097F8D0321FFA89F903F07F0308FB03782B
:1016A0000FFA8AFA013303F0070343F0800388F846
:1016B0004CA0A8F84A9087F8D03201F0AFFC41E680
:1016C000334916A805F0F6F801287FF4E8AC0223A8
:1016D000ADF8A4302F4BE6E42E6855222F21254883
:1016E00002F0D8F82F21234802F0E8F8552803D05B
:1016F0002B689B1B312BF0D90026F3B238AA02EBE2
:10170000430313F8881C0136FF293FF4ABAD13F8EF
:10171000872C184802F0BEF8EFE72A68C8EB0202EF
:10172000312A7FF6B8ADBDE51B4803F0FDFE1B4F27
:10173000049B3B6542F21073A7F84C30A8E6039B6C
:10174000C3F80090EEE63B6839461B6916A8984737
:101750007B6823F001037B600023BB60039BC3F81D
:1017600000B0DFE60E4803F005FEE1E6000C0140A4
:10177000880400200011002086040020840400203A
:1017800012050020D504002000120020CC04002007
:101790009C940008218C0008848C0008D41400203C
:1017A0007C1500202DE9F041013B00249B002546DB
:1017B0002646A6465FF0000C03E05FEA0E0CBCEB89
:1017C000030CBEEB0C0752F8078051F80C70A7FB16
:1017D0000878E41955EB080556F100061CF1040CD5
:1017E0009C4501DCF445ECDD40F80E402C463546C6
:1017F00000261EF1040E9E45DCDDBEEB430FDCDD52
:1018000040F80E40BDE8F0810FB407B504AB53F8C3
:10181000042B80210648019306F01AFC0028C8BF5B
:101820004FF0FF3003B05DF804EB04B0704700BF29
:10183000600500202DE9F04104460D4627489046FA
:101840001F46069EFFF7E0FF21682548FFF7DCFFF3
:1018500061682448FFF7D8FFA1682348FFF7D4FF49
:10186000E1682248FFF7D0FF21692148FFF7CCFF4C
:1018700061692048FFF7C8FFA1691F48FFF7C4FF4F
:10188000E1691E48FFF7C0FF1D4C1E48FFF7BCFF73
:1018900029461D48FFF7B8FFE16A1C48FFF7B4FF6F
:1018A000216B1B48FFF7B0FFE16B1A48FFF7ACFF55
:1018B0002A0603D541461848FFF7A6FF2B0403D597
:1018C00039461648FFF7A0FF1548FFF79DFF314640
:1018D000BDE8F0411348FFF797BF00BFA78C000891
:1018E000B58C0008C28C0008CF8C0008DC8C000886
:1018F000E98C0008F68C0008038D0008108D0008A4
:1019000000ED00E01D8D0008278D0008368D0008D1
:10191000458D0008548D0008638D0008728D000805
:10192000818D0008878D000830B505461C468DB0B6
:10193000684693F90030FFF735FFD4F888306946E0
:10194000284698470DB030BD13460A46FFF7ECBF56
:1019500000EB81010023884206D251F8042D43EAAE
:1019600052030B60D307F6E77047036870B513F0B6
:1019700001050646144604D00A46014602F05BFB08
:10198000054621463046FFF7E3FF45B104F18042AA
:10199000013A56F8223043F0004346F8223070BD39
:1019A00010B5013A52B2002A09DB50F8224051F832
:1019B00022309C4205D8F4D24FF0FF3010BD0020F9
:1019C00010BD012010BD70B504461D469DF9106084
:1019D00002F031FB30B9324621462846FFF7E0FFDE
:1019E000012806D02A4621462046BDE8704002F074
:1019F00003BB70BD30B5002463B2934205DA51F8E1
:101A00002350013440F82350F6E730BD013949B284
:101A1000002909DA013149B2A1B101F18043013B4A
:101A200050F82330002004E050F82130002BEDD096
:101A3000F0E713B15B080130FBE7013900EB41111E
:101A400008B27047084670474A11012350F8220037
:101A500001F01F0103FA01F10840704700231A4604
:101A600010B55CB28C4204DA50F8244001332243B2
:101A7000F7E7B2FA82F0400910BD30B587B01546DD
:101A80000A460146684602F0B7FA04462946684607
:101A9000FFF7E4FF003418BF01246400002814BFDE
:101AA0006042C4F1010007B030BD10B500235AB246
:101AB0008A4204DA002440F822400133F7E710BDDF
:101AC0002DE9F0471E46A6B09DF9B84002AD234669
:101AD00007462846FFF766FE1AAB214630468DE8DA
:101AE0002800FFF793FFC0EB84100FFA80F8202541
:101AF00098FBF5F5444B6DB208EA0303002BBEBF1B
:101B000003F1FF3363F01F0301330FFA83F90EA8CB
:101B10002946FFF7CAFFB9F1000F4FEA850012DD31
:101B20000EAB184400231A46A24212D256F82210D5
:101B300001FA09F52B4340F82230C9F1200321FABC
:101B400003F30132F0E70EAB224631461844FFF7AB
:101B500051FFA6000EAB4FEA440A03EB060901252C
:101B6000B8F1000F44DB00218E4648B2504521DA1F
:101B700026AB03EB850353F8983C53F8202026ABA3
:101B800003EB800353F8603CD31ACEEB03039A4275
:101B900004D034BF4FF0010E4FF0000EC5F101022A
:101BA0000DF1980C0CEB820252F8982C013142F89E
:101BB0002030DAE7CEEB05035D4221460EA85D41F9
:101BC000FFF7C6FE26AA631E02EB8303324452F8D7
:101BD000601C53F8602C484642EAC17208F1FF3895
:101BE000214643F8602C0FFA88F8FFF7B1FEB7E7FB
:101BF00026AB03EB8505224655F8981C3846FFF7BF
:101C0000F9FE26B0BDE8F0871F0000800F4B1A6870
:101C100042F001021A6059680D4A0A405A601A6877
:101C200022F0847222F480321A601A6822F4802230
:101C30001A605A6822F4FE025A604FF41F029A603A
:101C4000044B4FF000629A60704700BF00100240E2
:101C50000000FFF800ED00E008B50C4B1A680AB967
:101C60000B4A1A601A68C31C23F003030949134482
:101C70008B4206D906F026F80C2303604FF0FF30A4
:101C800008BD024910460B6008BD00BF5C0500207E
:101C9000B4180020004C0020184A036890420AD073
:101CA000B0F1804F07D0A2F59432904203D002F5F4
:101CB0008062904215D14A6823F0700313430F4AA3
:101CC00090420AD0B0F1804F07D0A2F594329042F2
:101CD00003D002F58062904203D1CA6823F44073B6
:101CE000134303608B68C3620B688362034B9842A3
:101CF00004BF0B690363012343617047002C01405B
:101D0000274B70B503F110052E4686B002AC224673
:101D100018685968083303C2AB421446F7D13388B8
:101D2000204CADF80430616801F00C03082B24D17D
:101D30004FF4701393FAA3F3B3FA83F301F4701220
:101D400022FA03F306AA134413F8102CCB0311D57F
:101D500061684FF4003393FAA3F3B3FA83F001F40C
:101D60000033C34006A90B4413F8140C0E4BB3FB0D
:101D7000F0F300E00D4B534300E00B4B6268F021A1
:101D800091FAA1F1B1FA81F102F0F002CA400849DA
:101D9000885C23FA00F0074B186006B070BD00BFE6
:101DA000958C00080010024000127A0000093D00E6
:101DB000E88D00080400002008B5FFF7A1FF074BDD
:101DC0004FF460525B6892FAA2F2B2FA82F203F424
:101DD0006053D340024AD35CD84008BD0010024093
:101DE000E88D000808B5FFF78BFF074B4FF4E06262
:101DF0005B6892FAA2F2B2FA82F203F4E063D34093
:101E0000024AD35CD84008BD00100240E88D0008AB
:101E100000232DE9F7431D4601240A68AC4034EA4B
:101E2000020240F0A8804A68122A2BD00ED8022A5B
:101E300025D004D84AB3012A30D1CB682EE0032A3A
:101E40001BD0112A2AD1CB68043327E04D4EB24271
:101E50001BD006D8A6F58016B24216D006F58036FD
:101E600008E0494EB24210D006F58036B2420CD09E
:101E7000A6F58016B24211D107E000230EE0CB6830
:101E800008330BE0CB680C3308E08B682BB1012BD7
:101E90000CBF04614461082300E00423FF2C97BFBA
:101EA0000646A5F108020768AA0084BF47689200A9
:101EB0004FF00F0909FA02FE27EA0E0703FA02F2B1
:101EC00088BF061D3A433260D1F804E01EF0805FFF
:101ED00051D02E4A25F00307966907F1804746F056
:101EE00001069661926907F5803702F001020192BE
:101EF00005F00308019A4FEA8808BA6809FA08F65B
:101F000022EA060C224A90420DD002F580629042ED
:101F10000BD002F58062904209D01E4EB0420CBF39
:101F20000322042204E0002202E0012200E0022257
:101F300002FA08F242EA0C02BA60174A1EF4803F25
:101F4000166814BF2643A643166056681EF4003F69
:101F500014BF2643A643566096681EF4801F14BF24
:101F60002643A6439660D6681EF4001F14BF344370
:101F700026EA0404D4600135102D7FF44DAF03B080
:101F8000BDE8F08300002110000031100010024075
:101F9000000801400014014000040140034A0020F1
:101FA000136943F080031361704700BF00200240B3
:101FB000064B1A69120641BF054A00205A6002F119
:101FC00088324CBF5A600120704700BF0020024099
:101FD000230167452DE9F0471E4C1F46237E054629
:101FE000012B8A46164632D00123237605F010FDD8
:101FF00048BB012D03D0022D0CBF022504254FF054
:1020000000084FEA08123046394606F075FBDFF843
:1020100048900023E361D9F8103080B243F0010307
:10202000C9F810302AF8180005F0F2FCD9F8103081
:1020300023F00103C9F8103028B908F101085FFA4C
:1020400088F39D42DDD800232376BDE8F087022087
:10205000BDE8F0874818002000200240914B70B581
:102060001968914D03680446AB4213D08F4A9342DE
:1020700012D01432934211D01432934211D0143240
:10208000934211D0143293420CBF4FF400024FF030
:1020900000620BE0082209E0802207E04FF40062B2
:1020A00004E04FF4004201E04FF400220A4238D02D
:1020B0001A68120735D51A68AB4222F008021A6076
:1020C00013D07A4A934212D01432934211D0143270
:1020D000934211D01432934211D0143293420CBF68
:1020E0004FF400034FF000630BE0082309E0802366
:1020F00007E04FF4006304E04FF4004301E04FF4C5
:102100000023684A5360636B43F001036363042355
:1021100084F82130002384F82030236B0BB1204653
:102120009847604B19682368AB4213D05F4A9342CB
:1021300012D01432934211D01432934211D014327F
:10214000934211D0143293420CBF4FF480024FF0EF
:1021500080620BE0042209E0402207E04FF4806235
:1021600004E04FF4804201E04FF480220A4234D070
:102170001A68560731D51A6890065EBF1A6822F0B1
:1021800004021A60AB4213D0484A934212D0143270
:10219000934211D01432934211D01432934211D091
:1021A000143293420CBF4FF480034FF080630BE076
:1021B000042309E0402307E04FF4806304E04FF478
:1021C000804301E04FF48023364A5360112384F8A2
:1021D0002130E36A0BB120469847324B19682368D7
:1021E000AB4213D0314A934212D01432934211D0F1
:1021F0001432934211D01432934211D014329342CC
:102200000CBF4FF400124FF000720BE0022209E005
:10221000202207E04FF4007204E04FF4005201E086
:102220004FF400320A423BD01A68910738D51A6839
:1022300092065EBF1A6822F002021A60AB4213D007
:102240001A4A934212D01432934211D0143293425C
:1022500011D01432934211D0143293420CBF4FF478
:1022600000134FF000730BE0022309E0202307E086
:102270004FF4007304E04FF4005301E04FF40033D7
:10228000084A5360636B6363012384F821300023A1
:1022900084F82030A36A1BB12046BDE8704018477F
:1022A00070BD00BF00000240080002401C00024058
:1022B00082B0054B019018681A680199121A8A4277
:1022C000FAD302B0704700BF90100020F8B50D4659
:1022D000064600241D4B214605F1D507C82205F10D
:1022E0000D001C6005F00FFD21460622384605F062
:1022F0000AFD2146C82205F1E10005F004FD214652
:10230000062205F1DB0005F0FEFC2022214605F245
:10231000A91005F0F8FC0E4B2C735A7885F8C941CA
:1023200002F0FB0242F008025A7020221A720622C2
:102330005A811A885F6064F309021A80FF22DC6008
:102340001C745C611A7634703046F8BD5405002068
:10235000900F00202DE9F04FA24B16461A68B7B037
:10236000D20707900C46089105D49F4A11689F4AEE
:10237000116001221A60237B0027042B00F2858262
:10238000DFE813F0050036006E004201A401984D0D
:10239000402380220A219748009703F0CDF8294670
:1023A000304601F00DF84023009780221E2104F1F1
:1023B000D50003F0C1F896F83A304FF000080B2B27
:1023C00010D101232373284601F090F86B78DB3499
:1023D00003F0FB0343F008036B7020232B726C6047
:1023E00006232FE0092B40F05082834B08934CE2E8
:1023F0007F4D402380220A218048009703F09CF8FB
:102400002946304600F0DCFF4023009780221E2141
:1024100004F1DB0003F090F896F83A304FF0000832
:102420000B2BDFD102232373284601F05FF86B7872
:102430000D3403F0FB0343F008036B7020232B7271
:102440006C60C8236B812B88C5F80C8068F3090386
:102450002B80FF2385F81080C5F814802B7614E2BA
:10246000634D402380220A216548009703F064F8F9
:102470002946304600F0A4FF28780023252886BF8F
:10248000203880B2002020440093802240231E2167
:102490000D3003F051F896F83A300B2BA2D10323FC
:1024A00004F1DB092373524801F020F8484605F097
:1024B00089FD04F10D03099394F9D63094F9D8609D
:1024C000A3F16102192A94F9DA5098BF23F020038E
:1024D000A3F1410BA6F16103192BA5F1610398BF8C
:1024E00026F02006192B04F1E10382464FF0C802C2
:1024F0004FF00001184698BF25F02005069305F01F
:1025000002FC94F9D5300D21A3F16102192A98BF7C
:1025100023F02003413BB3FBF1F201FB123394F9AA
:10252000D72094F9D970A2F16100192898BF22F040
:102530002002413AB2FBF1F001FB10224FF01B08E0
:102540000A92A7F16102192A4FF0000142460CA835
:1025500098BF27F020070B9305F0D5FB0B9B294A6A
:102560000CA808FB032105F025FD524649460CA89E
:1025700003F0FEFE4246002113A805F0C4FB0A9BAF
:1025800013A81A461F4B413F08FB023105F012FD0C
:102590005246494613A803F0EBFE424600211AA812
:1025A00005F0B1FB0D21B7FBF1F301FB1371154BE6
:1025B0001AA808FB013105F0FDFC524649461AA84D
:1025C00003F0D6FE413E413D4FF0000A099805F068
:1025D000F9FC504540F28D80BAF1C80F40F091806F
:1025E00087E000BFE405002090100020E0050020F7
:1025F000900F0020138E0008301100202F8E00084D
:10260000478E0008C38F0008402380220A21A44877
:10261000009704F1E10502F08FFF284605F0D2FC97
:10262000302808D99F4FA04A3B6811685B1AB3F560
:10263000FA7F00F21E8194F8C9010027204440234C
:10264000009780221421E13002F076FF96F83A30AC
:102650000B2B7FF4C7AE042323731AA801F0A2FC4E
:10266000924B182299691AA8043101F08FFB284671
:1026700005F0A8FC294602461AA801F087FB04F1E0
:102680000D0504F2A9111AA801F040FC3946C82230
:10269000284605F038FB94F8B01194F8AA3194F864
:1026A000A921059194F8AF112846049194F8AE1130
:1026B000039194F8AD11029194F8AC11019194F842
:1026C000AB1100917A4905F043FCDEE04023802203
:1026D0000A217848009702F02FFF402300978022BC
:1026E0001E2104F10D0002F027FF96F83A300B2B63
:1026F00079E6002384F8C9316A4B1A686A4B1A607C
:10270000C3E0099B13F90A30202B00F0AF801A2791
:10271000A3F161020135192A95FBF7F207FB125567
:102720003D4495FBF7F207FB125598BF23F02003B9
:10273000413B2B4493FBF7F207FB12333B4493FBE3
:10274000F7F207FB123336AA134413F9703CDFF893
:102750006C81413B33445B1B93FBF7F207FB123365
:102760003B4493FBF7F207FB123336AA134413F9E9
:102770008C3C0DF13009413B5B449B1B93FBF7F212
:1027800007FB12333B4493FBF7F207FB123336AAE5
:10279000134413F9A83C4846413BCBEB030393FB9E
:1027A000F7F207FB12333B4493FBF7F207FB1233BC
:1027B000414AD356413B5B4493FBF7F207FB12338C
:1027C0003B4493FBF7F207FB123318F9031005F0B3
:1027D000E3FBC9EB0000CBEB000090FBF7F307FB3A
:1027E00013033B4493FBF7F207FB1233334493FB91
:1027F000F7F207FB12333B4493FBF7F207FB12336C
:102800000DF14C0918F90310484605F0C5FBC9EB5A
:102810000000801B90FBF7F307FB13033B4493FB83
:10282000F7F207FB12332B4493FBF7F207FB12334B
:102830003B4493FBF7F207FB12330DF1680918F9DB
:102840000310484605F0A8FBC9EB0000401B90FBB5
:10285000F7F907FB1900384490FBF7F307FB130067
:10286000069A18F8003002F8013B06920AF1010AB4
:10287000ACE63B68136094F8C9310133B3FBF0F266
:1028800000FB123384F8C931D5E6079B1A4610467F
:10289000089B13600023137137B0BDE8F08F00BFB1
:1028A0005B8E000890100020E00500201011002031
:1028B000DC8E0008678E000822910008F88D000861
:1028C00010B5044605F0FCF9204610BD10B50446CD
:1028D00005F0F6F9204610BDF8B50C461E4B01F187
:1028E0000C020646002120461A6003F007FD21462F
:1028F0000022042A0BBF194B194BC4F8E030C1F871
:102900009030142303FB02430025A1F88C5093F868
:102910009400013265F30000052A83F8940001F168
:10292000140103F19003E4D129460C2204F1F000D4
:1029300005F0E9F92946402204F1FC0005F0E3F92D
:102940008022294604F59E7005F0DDF984F8BC511B
:1029500035703046F8BD00BF54050020758E000864
:10296000369200082DE9F04FB1F88C30AFB0064632
:102970000C4692F83A200F46002B40F09D81013A18
:102980000A2A00F2D281DFE812F00B00D001D00158
:10299000D001D001D0012800D001CD01D0014800E4
:1029A0004D8B91F8BC1195B9043989B20BB2002B4B
:1029B00005DD84F8BC11204603F0A0FCB5E12946F2
:1029C000204603F09BFC84F8BC516583ADE1013DDA
:1029D0000139658384F8BC11A7E1314802F0E4FEB7
:1029E00094F8BC3182B299B28A4240F29E81628BE5
:1029F000032A0CD104339842DEBF0238C1B284F8F6
:102A0000BC11204603F07AFC002363838DE1013280
:102A10000133628384F8BC3187E14B8B142202FBC3
:102A20000312B2F81C90B9F1000F00F07E8101F1A1
:102A30007C021C494FF001080A604FF6FF72914575
:102A400004F1F005DFF868A0A4F88C8034D1DFF839
:102A500064B0A4F8A080C4F890B04A461249284651
:102A600005F076FA114BC4F8A450C4F8B830C4F895
:102A7000CC3094F8D030A4F8B48043EA080384F84A
:102A8000D0300023C4F8D43084F8D8300423A4F81C
:102A9000C880A4F88A30AAF80C90CAF810B044E1B3
:102AA0001011002054050020888E00088F8E000829
:102AB000281500207E8E000804EB8303DB6EA4F84B
:102AC000A08003F14C022846C4F890209A491A8845
:102AD00005F03EFA638B04F1FC0904EB8303D3F8A1
:102AE0006CB0C4F8A450A4F8B4800BF102054022E5
:102AF0000021484605F007F9297E6B789BF80220F3
:102B00001691E97D48461591A97D1491697D13912F
:102B1000297D1291E97C1191A97C1091697C0F911A
:102B2000297C0E91E97B0D91A97B0C91697B0B911E
:102B3000297B0A91E97A0991A97A0891697A079122
:102B4000297A0691E9790591A97904916979039126
:102B500029790291E9780191A9780091774905F0E6
:102B6000F7F994F8BC30C4F8B89043F0010384F846
:102B7000BC30638B4FF0000904EB8303C4F8C090B2
:102B800084F8C490D3F86CB0A4F8C88004F59E789B
:102B90000BF11C0580224946404605F0B4F895F833
:102BA0002F106B789BF81C202D9195F82E10404625
:102BB0002C9195F82D102B9195F82C102A9195F8C1
:102BC0002B10299195F82A10289195F82910279112
:102BD00095F82810269195F82710259195F826103C
:102BE000249195F82510239195F82410229195F8B9
:102BF0002310219195F82210209195F821101F9112
:102C000095F820101E91E97F1D91A97F1C91697F85
:102C10001B91297F1A91E97E1991A97E1891697EED
:102C20001791297E1691E97D1591A97D1491697DF1
:102C30001391297D1291E97C1191A97C1091697CF5
:102C40000F91297C0E91E97B0D91A97B0C91697BF9
:102C50000B91297B0A91E97A0991A97A0891697AFD
:102C60000791297A0691E9790591A9790491697901
:102C7000039129790291E9780191A978009130496D
:102C800005F066F994F8D03084F8D89043F0010349
:102C900084F8D0300423A4F88A30638BC4F8CC8045
:102CA000C4F8D49004EB8304E36E33F84C2BAAF8F9
:102CB0000C20CAF8103038E0FF2A36D0B1F88A303C
:102CC000142101FB034101F19005287910F0010F57
:102CD00007D040F0010028710020C1F8980081F869
:102CE0009C00013A00210A2A1FD8DFE802F0061EE4
:102CF0001E1E1E1E0B1E141E1D000BB9042307E012
:102D0000013B05E0042B02D1A4F88A100DE0013349
:102D1000A4F88A3009E00B4B04F10C021A60A4F805
:102D20008C1002E0084F00E0084F30460023376067
:102D300033712FB0BDE8F08F888E0008948E0008A4
:102D4000FD8E0008540500203011002028150020B9
:102D500038B50C460546002914BF5D2255225A217C
:102D600000F098FD002C2846BDE8384014BF7C22B6
:102D700070225C2100F08EBD7047704770470000E4
:102D800010B5034C002323604B83037010BD00BFBC
:102D900054050020214B01F10C021A6000238B83A3
:102DA0001F4B93F90C300BB15F2B01D11D4B00E091
:102DB0001D4B0B6201230B861C4B4B630223A1F8B6
:102DC00044301B4B8B640323A1F85830194B93F804
:102DD000D0321B064CBF184B184BCB650423A1F80F
:102DE0006C30174B0B670523A1F88030154BC1F8E9
:102DF00084300623A1F89430134BC1F89830072390
:102E0000A1F8A830114BC1F8AC300823A1F8BC30B0
:102E10000F4BC1F8C03000230370704754050020E9
:102E200010110020C9910008D49100086C9100088D
:102E3000749100080012002081910008919100080F
:102E40009F910008A6910008B3910008BE91000868
:102E50003692000801230370704700220270704709
:102E6000038843F30903002BA2BF90F908104268BE
:102E7000D15403884289591C41F30901914261F3FD
:102E80000903A8BF02F1FF320380A4BF62F3090364
:102E90000380704710B592F83A200446013A0B4679
:102EA00000200A2A3CD8DFE802F0063B3B3B3B3BD4
:102EB0000D3B123B14004A8B0AB9082200E0013A8C
:102EC0004A832DE04A8B082A01D00132F8E7488373
:102ED00026E04A8B072A23D8DFE802F004061517FC
:102EE000191B1D1F114B1BE0114B93F90C30B3B98B
:102EF000104802F019FB104B104A1A6540F6B83220
:102F0000A3F84C200CE00E4B0AE00E4B08E00E4BF1
:102F100006E00E4B04E00E4B02E00E4B00E00E4BC1
:102F2000236000232371204610BD00BF98100020AD
:102F300010110020DD910008D41400203011002071
:102F40004816002000120020C40D0020700C002044
:102F500008090020AC0F00207C15002010B50446A5
:102F600004F0AEFE204610BD10B5044604F0A8FEE5
:102F7000204610BDF7B50D46002632230A2104462F
:102F800017460096782205F10C0002F0D5FA0B4B9B
:102F9000A9681B68B5F84C205B1A9A4206D397F8CB
:102FA0003A30FF2B02D12560267103E0044B2360E9
:102FB00000232371204603B0F0BD00BF9010002015
:102FC0003011002010B50446007A10F001001BD02B
:102FD000E2680F4B0AB91A68E2601B68E2689A1A45
:102FE0002389C3F34B039A420DD9094B60681B68D0
:102FF000E360237C0133237404F0E4FF237C9842D4
:103000009CBF00232374207C6368184410BD00BF5C
:103010009010002070477047704700002DE9F3477B
:10302000B04E3268002A00F0A881907A7F2808D834
:10303000D17A3F2905D80024537B127B009401F0FC
:1030400035FD3268917A8FB27F2F3AD8D37A9DB20C
:103050003F2D36D892F80C80547B414423447F297D
:10306000C8BFC7F180083F2BC8BFC5F140041FFA95
:1030700088F8A4B2B8441FFA88F84FF001092C442C
:10308000A4B22B46424629463846CDF8009001F0BE
:1030900077FC2346424621463846CDF8009001F0A1
:1030A0006FFC23463A4629463846CDF8009001F099
:1030B00067FCCDF80090234642462946404601F081
:1030C0005FFC3168CA7A0D68941CE4B2ADB18B7AAA
:1030D00085480133DBB2013203804280013D15F99E
:1030E000010F30B1012102F04FFF95F9003083420A
:1030F000F5D07E4B5B781C44E4B233687B4A5F7B3F
:103100005178033F97FBF1F719681D89002918BF13
:10311000013FFFB21FFA87FAAA45904639D300252E
:103120003168AFB20B89BB4240F20181CB894A685A
:10313000BB4214D098F801004FF0140C05FB004E70
:103140000CFB072700220B7B897A8DE80500033BE7
:103150000131DBB25FFA8EF2C9B2786815E0142053
:1031600000FB0320FFF72EFF5E4B98F801701968F3
:1031700005FB07420B7B4FF0010E897A8DE88040FA
:10318000033B0131DBB2D2B2C9B201F01BFD013504
:10319000C6E7DB896A1E4FEA5709D21A4A4541DA67
:1031A000CAEB05053168ADB20A89AA4240F2BF8078
:1031B000CB894868AB4216D098F801C0AA1A4FF0E4
:1031C000140E3A440EFB050002FB0C424FF0000EB9
:1031D0000B7B897A8DE80050033B0131DBB2D2B220
:1031E000C9B240681AE0142303FB0500FFF7EAFEAA
:1031F0003C4B98F801E019684FF0010C0A890B7BF1
:10320000AA1A3A4402FB0E42897A033B0131CDF8F7
:1032100004C0CDF800E0DBB2D2B2C9B201F0D2FCFA
:103220000135BFE71FFA89F5AB4236D20027BBB2A2
:103230009A457CD93168CA8948689A4213D098F86F
:103240000120142505FB070007FB024E00250B7B20
:10325000897A8DE82400033B0131DBB25FFA8EF2FC
:10326000C9B2406815E0142303FB0700FFF7AAFE6C
:103270001C4B98F80150196807FB05420B7B4FF077
:10328000010E897A8DE82040033B0131DBB2D2B2D6
:10329000C9B201F097FC0137C9E75D1B3168ADB2D7
:1032A000CA89C9EB02033B449D4240DA9542486813
:1032B0001ED098F801E0AA1A4FF0140C4A440CFBF7
:1032C000050002FB0E420B7B897A4FF0000C033B9A
:1032D0000131CDF804C0CDF800E0DBB2D2B2C9B202
:1032E000406820E0540500203C0700201004002026
:1032F000142303FB0500FFF765FE254B98F801E05A
:1033000019684FF0010CCA890B7BAA1A4A4402FBC8
:103310000E42897A033B0131CDF804C0CDF800E0BC
:10332000DBB2D2B2C9B201F04DFC0135B6E731686B
:103330004A7B0D89CB8992FBF5F75A4392FBF5F551
:10334000887A0A7BA31E9BB20124092F02441946E6
:103350000094CCBFFFB20A2701F012FB3168EDB236
:103360000B7B8A7AC97A1A44013A294492B2CB1962
:1033700000949BB2104601F003FB01F0C5FB054829
:103380004FF48062002102B0BDE8F04704F0BBBCFE
:10339000540500201000002010B50446406804F0D9
:1033A00011FE237A0E2885BF43F0010323726FF3C9
:1033B000000300238ABF23742372E36010BD000062
:1033C0002DE9F0414B780C4603F0040303F0FF02B3
:1033D000444D90F83A60A3B3C9682B685B1A40F675
:1033E000B8318B422DD9FF2E2BD12046FFF738FD67
:1033F00020232676237263786FF3820363702B6831
:103400004FF4FA72B3FBF2F36269934208D063613E
:10341000637883F00802C2F3C00262F3C3036370EF
:103420006278238812F0080F43F30903626808BF2B
:1034300094F9081023EAE37318BF5F21D154BDE863
:10344000F0810A2EDBD8284B53F82680237EB34226
:103450000BD1277C40460137FFB2277404F0B2FD40
:10346000874208D30023237405E00023237412B19C
:103470002046FFF7F5FC237C18F90330082B28D1F0
:1034800023886268002143F30903D154238803F29F
:10349000FF3242F309028A42ACBF62F3090361F3CF
:1034A0000903238023886268002143F30903D15470
:1034B000238803F2FF3242F309028A42ACBF62F36F
:1034C000090361F30903238020232372FF2323765A
:1034D00091E723726378267643F0040363702B68C8
:1034E000E3608CE79010002040910008038890F979
:1034F0000810426843F30903D1547047F8B50E46EB
:103500000746154602F050F980B2B04215D90B219A
:10351000B6FBF1F03C7F7A7F03199BB21444A342BF
:103520000BDA01FB1060582180B2484303F50033E9
:1035300000EB83232B600120F8BD0020F8BD0000C4
:103540002DE9F04F89B006468B4691469A4602F027
:103550002BF9441CE4B2422C129D07460AD8B368EA
:1035600001A9D3F80230304601938DF8054002F0EE
:10357000A1F800E04224A74202D14FF00008CEE0BB
:1035800008AA4FF0FF3342F8203DB9B23046FFF7AA
:10359000B5FF80460028F0D0634E3427FEF708FDC3
:1035A000F7605A46002300990120FEF713FDFEF74D
:1035B000F5FCFEF7FDFCF760009CD9F8002004F153
:1035C0004C0100230220FEF705FD04F15001D9F85B
:1035D000042000230220FEF7FDFC002304F1540127
:1035E000D9F808200220FEF7F5FCFEF7D7FC1A22D6
:1035F000002101A8009C04F086FB1922514601A875
:1036000004F076FBFEF7D4FCF760A11C019A0023BE
:103610000220FEF7DFFCA11D029A00230220FEF724
:10362000D9FC04F10A01039A00230220FEF7D2FC20
:1036300004F10E01049A00230220FEF7CBFC04F1F2
:103640001201059A00230220FEF7C4FC04F11601C2
:10365000069A00230220FEF7BDFC04F11A01079A26
:1036600000230120FEF7B6FCFEF798FC009CFEF755
:103670009FFCF7602A68002304F11C010220FEF77A
:10368000A9FC6A68002304F120010220FEF7A2FCD5
:10369000AA68002304F124010220FEF79BFCEA68DB
:1036A000002304F128010220FEF794FC2A6900237C
:1036B00004F12C010220FEF78DFC6A69002304F15D
:1036C00030010220FEF786FCAA690023E1190220DE
:1036D000FEF780FCEA69002304F138010220FEF7BE
:1036E00079FC2A6A002304F13C010220FEF772FCF7
:1036F0006A6A002304F140010220FEF76BFCAA6A0B
:10370000002304F144010220FEF764FCEA6A00236E
:1037100004F148010220FEF75DFCFEF73FFC404645
:1037200009B0BDE8F08F00BF00200240006810B56E
:10373000104A1149043000F011FD28B10D490E481E
:1037400003F0B8F8012801D0002300E00A4B0B4930
:103750005A1E03F1170012F8014F824201F8014B83
:10376000F9D193F82F30064803F0010302330370B8
:1037700010BD00BF9C940008E80500201906002039
:1037800018060020024B10221A61024B1B7870476A
:103790000008014013050020024B4FF480121A610B
:1037A000704700BF0008014008B50D4A0346117874
:1037B0000429114612D01278032A08D1094A127836
:1037C0002AB103680121DB6A9847012008BD0A7805
:1037D000032A03D01A681846926A9047002008BD51
:1037E000941000205008002010B5054C01232370D0
:1037F000044B186803681B6A98470023237010BDA8
:1038000013050020D00400202DE9F04F04460F4698
:1038100091469A4685B09DF838809DF83CB00026C8
:103820002368012200921D684A46534639462046C5
:10383000A847124D2A682B6803929B1A5B4514D245
:10384000236820469B689847039A0028F3D00C4BC6
:103850001B889BB29F4203D04FF6FF739F42EAD171
:10386000084B1B78002BE6D004E00136F3B29845F4
:10387000D6D2002005B0BDE8F08F00BF9010002028
:10388000CC0400203306002010B5044604F018FADA
:10389000204610BD70B50E461546044603685B6BA6
:1038A000984746F0800002F0B1FB284602F0AEFBDC
:1038B00023682046BDE870409B6B184738B50D461D
:1038C000036804465B6B984705F07F0002F09EFB9F
:1038D000002002F09BFB0546236820469B6B98471F
:1038E000284638BD10B504460029017314BF0F22C5
:1038F0001A221321FFF7CEFF237B43B1112120466B
:10390000FFF7DCFF00F01F0242F0600202E0E27A03
:1039100042F080022046BDE810401121FFF7BABFF7
:10392000164A002310B51370154A28211380154A32
:1039300004461380144A1370144A1370144A137007
:10394000144A1380FFF7BAFF43070AD53D212046EA
:10395000FFF7B4FF40F00402D2B23D212046FFF74A
:1039600099FF204625214022FFF794FF2368204637
:10397000BDE81040DB6A0321184700BF1205002094
:10398000CC040020860400205008002032060020CD
:1039900033060020840400202DE9F041524B0446F8
:1039A0001A781D46032A04D12821FFF787FF430711
:1039B00014D42B78042B04D123680121DB6A204620
:1039C000984724212046FFF779FF4042022300B2A6
:1039D00090FBF3F0454B1880BDE8F081236801218E
:1039E000DB6A20469847236820465B6B9847002097
:1039F00002F00CFB002002F009FB3D4D28702B78F3
:103A0000422B21D82B78DBB200202B7002F0FEFA7B
:103A1000384E000280B23080002002F0F7FA33887E
:103A20001843A37A80B2308053B9338822899BB27D
:103A30009A4205D04FF6FF7233889BB2934205D16C
:103A40002B78022B02D90DE04223DDE700232B70F7
:103A5000236820469B6B984723682046BDE8F041C9
:103A60009B6A1847224B244D1B780020053BDBB294
:103A70002B7002F0CBFA214E000280B23080002081
:103A800002F0C4FA3388184380B23080002002F07C
:103A9000BDFA2E4620F07F03194ADBB2137000F006
:103AA0004000184BC0B2187000233178DDB28D424F
:103AB000114A03F1010706D2002002F0A7FA124BC7
:103AC00058553B46F1E713783C2B04D813780E4A3F
:103AD000DBB20021D154236820469B6B98472368B2
:103AE0000321DB6A6BE700BF9410002084040020F0
:103AF000500800208604002012050020CC0400207D
:103B00003306002032060020D50400202DE9F047BE
:103B10001D4603688846DB6A0121044617469DF866
:103B200020609DF82490984727212046FFF7C6FE85
:103B30000306F9D5002225212046FFF7ABFE3D2DD7
:103B400028BF3D25B9F1000F04D1002E0CBF00267F
:103B5000402600E08026236820465B6B9847802043
:103B600002F054FA681DC0B202F050FA4FEA182071
:103B700002F04CFA5FFA88F002F048FA2089000A55
:103B800002F044FA207A02F041FA304602F03EFA9E
:103B90003E46F31BDBB29D4204D916F8010B02F03E
:103BA00035FAF6E7236820469B6B98472368204642
:103BB000BDE8F047DB6A0421184700002DE9F04F0B
:103BC0001C4B92461C4E0022DFF874B01A7085B070
:103BD00089463D2134880546BBF80080FFF76EFE1C
:103BE000164F40F00402D2B23D212846FFF752FEA4
:103BF0003B68A4B20393284602F062FB2A6848B9E6
:103C00003B6803995B1AB3F57A7F03D29368284621
:103C10009847F0E7002001238DE80900E1B23180E8
:103C2000546A53464A462846A047ABF8008005B080
:103C3000BDE8F08F32060020CC0400209010002058
:103C4000840400202DE9F7430E463D210446174623
:103C50009846FFF733FE134D40F00402D2B23D21E7
:103C60002046FFF717FED5F80090204602F028FB0B
:103C7000226848B92B68C9EB0303B3F57A7F03D2F6
:103C8000936820469847F0E7002301939DF8283079
:103C900031460093556A43463A462046A84703B04A
:103CA000BDE8F083901000201F29037B28BF1F214F
:103CB00010B50446C1720BB14908C17211212046EA
:103CC000FFF7FCFDE37A00F0E0021A432046BDE86E
:103CD00010401121FFF7DEBD70B52A4D04462B7848
:103CE0000E468B424CD004294AD8DFE801F0372F2A
:103CF000271403000121FFF7E1FD00F0E30242F089
:103D00000C0201212046FFF7C5FD237B7BB323680E
:103D100001211B6B0FE00121FFF7D0FD00F0E30252
:103D200042F0100201212046FFF7B4FD237BF3B1DE
:103D3000236800211B6B2046984718E00121FFF7FC
:103D4000BDFD00F0E30242F008020CE00121FFF7A4
:103D5000B5FD00F0E30242F0040204E00121FFF7A8
:103D6000ADFD00F0E30201212046FFF793FD2B7823
:103D70002BB927212046FFF7A1FD0306F7D52E70AA
:103D800070BD00BF94100020704700002DE9F04F77
:103D9000D0E90845D300E41845F10005C0E908451D
:103DA000CBB08B180993099B8B4200F0A980836EDE
:103DB00011F8014BC2180133402B82F8284083666A
:103DC000F1D10346002593F8292093F828401204E6
:103DD00042EA046293F82B400433224393F82640CE
:103DE00042EA04220AAC62510435402DEBD123464D
:103DF00010279E6B1C684FEAF64585EA764585EAF2
:103E000096265D6A5A682C4435194FEAB24484EA12
:103E1000F21484EAD20201372A44402F1A6403F1D3
:103E20000403E6D103684FF0000901934368019C45
:103E300002938368DDF808E00393C368039F04934B
:103E40000369DDF810A00593436906938369DDF8E3
:103E500018800793C369DDF81CC008931D46059BB5
:103E6000294E4FEAF32B8BEAB31B8BEA736256F8A9
:103E700029B00AAE56F8296009F10109B344934408
:103E800003EA08062CEA030256405E44354487EAFA
:103E90000E0B4FEA74360BEA040B86EAB4060EEA00
:103EA00007028BEA020286EAB4561644B9F1400FC3
:103EB00005EB0A0B2E44BA46654606D07746C44643
:103EC000A646984634465B46CAE7019A32440260E9
:103ED000029A22444260039A72448260049A3A44ED
:103EE000C260059A5A440261069A1A44079B4261CD
:103EF00043448361089B6344C3610023836652E7A4
:103F00004BB0BDE8F08F00BF38920008836E2DE9FA
:103F1000F0474124B3FBF4F4074604EB84140E4647
:103F2000A0B0403400F1270100229A4201D11A4684
:103F300005E011F8010F0DF802000132F5E7A24289
:103F400004D200210DF802100132F8E720AA134430
:103F5000802203F8802C0DEB040A0025D7E908899C
:103F60002A464046494604F0C7FB0835402D0AF86A
:103F7000010DF5D10025BD66224669463846FFF79A
:103F800005FF2B46F0181822F958D140083A12F1D3
:103F9000080F00F8011BF7D10433202BF2D120B019
:103FA000BDE8F0870D4A0E4B0E49DFF848C080E8A7
:103FB0000E100D4B002203610C4B43610C4B8361CF
:103FC00003F17453A3F52303A3F69243C3610023C3
:103FD00083660023C0E90823704700BF85AE67BB36
:103FE00072F36E3C67E6096A7F520E518C68059B3E
:103FF000ABD9831F3AF54FA530B5002310C920CAAD
:10400000641B10C010C920CAAC4110C010C920CA1E
:10401000AC4110C010C920CAAC4110C010C920CAA0
:10402000AC4110C010C920CAAC4110C05B41B3FA0A
:1040300083F0400930BD30B50346002010C920CAC6
:10404000641910C310C920CA6C4110C310C920CA1A
:104050006C4110C310C920CA6C4110C310C920CADA
:104060006C4110C310C920CA6C4110C3404130BD1F
:1040700038B504461D46FFF7BFFF30B12A4621463A
:104080002046BDE83840FFF7D6BF38BD70B50446BE
:1040900016464369056903EB4505002322699342EF
:1040A00005D2CA5C82F05C02EA540133F6E72B4485
:1040B000E1685A1B914203D95C2203F8012BF7E710
:1040C0003146A3682046984723682046984763688E
:1040D000E2682946204698476368314620462269AF
:1040E0009847A36831462046BDE8704018474368AA
:1040F000184770B504464369056903EB450500237D
:104100002269934205D2CA5C82F03602EA54013336
:10411000F6E72B44E1685A1B914203D9362203F893
:10412000012BF7E72368204698476368E268294631
:104130002046BDE87040184770B5044615460E4647
:10414000FFF7D7FF226929462046FFF7D0FF2A460E
:1041500031462046BDE87040FFF798BF70B5144661
:10416000B2F90230A2B00733082293FBF2F20E46F6
:10417000014604A802F07DFBB4F9025020221F354D
:1041800095FBF2F56DB2294604A8FDF767FC08B16E
:1041900000203AE02A4604A904F11C00FDF76DFC5A
:1041A00001280546F4D10AA910AA234604A80291C1
:1041B000039202F021FCB0FA80F0638822AA400941
:1041C00002EB80000094013350F8802C04F134019C
:1041D00016A81BB200F0ADFE217816A8490049B21E
:1041E000FDF73CFC0028D3D116AA94F90110304603
:1041F00002F0B8FB94F9011094F9002016AB701886
:1042000003EB820202F0AEFB284622B070BD000034
:10421000024900230B600370704700BF5405002063
:1042200092F83A30072B0CD0092B02D0012B0ED17B
:1042300001E009490BE04B8B0BB9082306E0013B79
:1042400004E04B8B082B0CBF002301334B8300236E
:1042500001600371704700BF3011002010B5044B9E
:1042600001F10C041C60002381F86530037010BD5F
:10427000540500202DE9F843384C0D460646072129
:1042800020469046FFF71AFB082107462046FFF715
:1042900015FB092181462046FFF710FB00EB074084
:1042A00000EB092004F0EAFA2D4904F03FFB04F08A
:1042B0008DFC2C49024605F1800003F049FE2421C3
:1042C0002046FFF7FBFA404200B2022290FBF2F2D6
:1042D000254905F1940003F03BFE29212046FFF714
:1042E000EDFA2249024605F1A80003F031FE18213B
:1042F0002046FFF7E3FA1E4900F0380205F1BC0042
:1043000003F026FE236801212046DB6A9847082235
:104310004E21204605F1D007FFF7BCFA4E210F4889
:10432000FFF7CCFA00F0040000F0FF040028F5D1FC
:104330004F210A48FFF7C2FAC0F1A502D2B20D49D7
:10434000384603F005FE98F83A200B4B3471092AE1
:1043500008BF1D4630463560BDE8F88300110020D7
:1043600000247442389300084793000850930008D3
:10437000639300086C9300083011002070B50C4660
:1043800005460E4B01F1800601F10C021A60002176
:104390006422304603F0B7FC04F19403636304F134
:1043A000A803A36404F1BC03E36504F1D00323670D
:1043B000002326622B70284670BD00BF54050020E4
:1043C00038B5054608460024054B81F864400C22A8
:1043D000214658301C6003F096FC2C70284638BDEE
:1043E0005405002010B5044603F06AFC204610BDB9
:1043F00010B5044603F064FC204610BD10B5044619
:1044000003F05EFC204610BD2DE9F043664B01F140
:104410000C0201F1D0051A600C46BFB04FF41072C7
:1044200000210746614E284603F06DFC604A614951
:10443000284603F08DFD304601F0B6F95E4902468C
:1044400004F5887003F084FD94F9103304F5A8791D
:1044500004F544787BBB22A8FFF7A4FDB1691822BC
:10446000043122A8FFF792FCB3693EA95B880222BF
:1044700021F8923D22A8FFF789FC1AA922A8FFF78C
:1044800045FD9DF86F109DF8693005919DF86E10FF
:104490009DF8682004919DF86D10404603919DF8A9
:1044A0006C1002919DF86B1001919DF86A100091BB
:1044B000424903F04DFD42464149484603F048FD5C
:1044C000B36940495A8804F5C87003F041FD3E487D
:1044D000FFF72CF9017E437802781691C17D3B4E9F
:1044E0001591817D1491417D1391017D1291C17CC3
:1044F0001191817C1091417C0F91017C0E91C17BC7
:104500000D91817B0C91417B0B91017B0A91C17ACA
:104510000991817A0891417A0791017A0691C179CE
:104520000591817904914179039101790291C178D2
:104530000191817804F5E8700091254903F008FDA8
:1045400032682449C2F30B0204F5047003F000FD45
:104550003268214B93FAA3F3B3FA83F31F49DA408D
:1045600004F5147003F0F4FC1D4A1E4904F5247090
:1045700003F0EEFC04F534701B4A1C4903F0E8FC20
:104580001C3400266560268020460136FEF704FFB5
:10459000092E05F1400504F11404F3D13846002337
:1045A0003B703FB0BDE8F08354050020101100209F
:1045B0001C110020759300087B930008DC8E000816
:1045C0008C9300089493000828110020002004E038
:1045D000948E00089C9300080000FFFFA79300083A
:1045E00000030001B2930008C3930008CC930008B5
:1045F0002DE9F04791F8653088B0642B80460C4671
:1046000017460D464FF0000667D001D83BB162E176
:10461000652B00F09B80662B00F0D1805BE192F867
:104620003A30013B0A2B00F25681DFE813F00B0011
:104630005401540154015401540112005401150154
:10464000540118004B8B0BB9022300E0013B63833C
:1046500041E14B8B022B0CBF00230133F7E78B7E2C
:104660000026643381F865309F4B1E60FEF7D6FC50
:1046700094F86530652B20D0662B28D0642B40F051
:104680002A8158340C223146204603F03CFB974BDC
:104690005A785C6002F0FB0242F008025A70202255
:1046A0001A720C225A811A88DE6066F309021A8097
:1046B000FF221E745E611A760DE18D4B9B68D3F864
:1046C0000230C3F30363013384F8643003E1FF2352
:1046D00087F8396087F83830FDE040238022009663
:1046E0000A21844800F028FF814A92F90C30914653
:1046F0002BB900938022402314217F4805E00096C7
:1047000040238022142109F10C004FF0000A00F030
:1047100013FF402380221E217848CDF800A000F02E
:104720000BFF72493846FEF74BFE97F83A3004F11A
:1047300058060B2B40F0B98094F9583033F0200222
:1047400000F0B3805F2B40F08980AEE040238022F0
:1047500000960A216A4800F0EFFE97F83A30A3F17C
:104760000902012A20D9FF2B1ED00B2B40F0AD806F
:104770005F4894F86420836804A9D3F80230614E3E
:1047800004931B0E62F303038DF8133000F092FFC5
:104790005D4D002800F092805C4800F0C5FE2E655B
:1047A0004FF4FA63A5F84C3094F86430584A04F199
:1047B0005806D2565749304603F0CAFB75E04023ED
:1047C00080220A215448009600F0B6FE4023802241
:1047D0001E215248009600F0AFFE40230096802232
:1047E00028214F4800F0A8FE97F83A30092B33D023
:1047F0000B2B70D1DFF83C913D4D4FF0340AFDF7A3
:10480000D7FB08ACC9F80CA06B6844F8146D2146BE
:10481000012704A8069304960597079703F040F92B
:10482000FDF7BCFB284600F0C2FFFDF7C1FBC9F84D
:104830000CA02B7F214603F500339B0206936B7F70
:1048400004A8013B079304960597039603F028F903
:10485000FDF7A4FB334B5E832A4D3CE084F863A054
:104860002248FEF743FE0C2231462F4803F0B2FBEC
:10487000D9F8083008A9D3F802301D4841F8103D96
:1048800000F018FF1F4C204D30B1284800F04CFEBE
:104890002C654FF4FA6305E0254800F045FE2C65D1
:1048A0004FF47A63A5F84C3015E000230093802282
:1048B00040232821304600F03FFE0CE01C4800F069
:1048C00033FE2E654FF47A636CE7082B88BF08230C
:1048D00084F8643068E740460023C8F8005088F840
:1048E000043008B0BDE8F08754050020900F002088
:1048F00010110020D5930008E9930008F1930008F7
:104900001E94000830110020D41400203E940008AA
:104910004C940008569400086194000875940008AF
:1049200087940008481600201C11002001940008FC
:1049300011940008002002407F2810B51BD83F29A1
:1049400019D80D4B1B7913B1B2FA82F25209CC0877
:10495000012A0A4B01F0070100EBC41004D18A4080
:10496000195C0A431A5410BD1C5C012202FA01F1C1
:1049700024EA0101195410BD3C070020100000205A
:104980002DE9F74F7F2828BF7F207F2A28BF7F226D
:104990003F299DF8304028BF3F213F2B28BF3F23B0
:1049A00082420094914604460D461E4606D9C0EB4D
:1049B000020A99420FFA8AFA70D30BE0C2EB000A9E
:1049C00099420FFA8AFA05D25F1A3FB24FF0FF3BC5
:1049D00001230CE0A1459CBF4FF0FF3B5B46A5EBDC
:1049E00006073FB284BF4FF0010B4FF0FF3357452E
:1049F0004FF00208A5BF97FBF8F8C8F100089AFB32
:104A0000F8F80FFA88F8BAF1000F13D1B54282BF57
:104A10002B4635461E464C4528BF4C46A4B22DB207
:104A2000B54240DCADB22946009A2046FFF784FF2C
:104A30000135F4E71FBBB54228BF3546A1453EBF4F
:104A400023464C469946ADB224B24C452BDCA4B269
:104A50002046009A2946FFF76FFF0134F4E7B5427C
:104A600021D0CAF100029045C1BFC7EB08025C44E7
:104A700012B2A4B2D8BF4246B8450ADB9046009AAB
:104A8000294620460193FFF757FF4C45019BE8D18B
:104A9000E5E752441D4412B2ADB2EFE75F1A3FB2F0
:104AA0004FF0010B94E703B0BDE8F08F2DE9F74319
:104AB0001D46144606460F4683187F2BC8BFC0F11B
:104AC000800401EB0503C8BFA4B23F2BC8BFC1F1EE
:104AD00040059DF82890C8BFADB24FF000085FFABE
:104AE00088F3AB4208F101080AD83B449BB2321963
:104AF000CDF8009092B219463046FFF741FFEEE73D
:104B000003B0BDE8F083000010B50024A4F150000C
:104B1000C0B201F017FA002001F014FA102001F0E1
:104B200011FA044800EBC410013401F0E1F9082C3B
:104B3000ECD110BD10000020704770472DE9F843FC
:104B4000B2F9023016460825DA1D20241F3392FBE5
:104B5000F5F593FBF4F407468946202D4FFA84F8C7
:104B600028BF20254146FCF7A0FF2A464946384683
:104B700001F07FFEB6F90230ED009D421FD9ED1A1B
:104B8000002207EB84039F420AD253F8041D21FA46
:104B900005F002431A60C5F1200201FA02F2F2E7C1
:104BA0001C36424639463046FCF7FAFE012806D04C
:104BB000324639463846BDE8F843FFF71DBABDE82E
:104BC000F88300002DE9F3471FFA81F9B9F17F0F4F
:104BD00080460D461F469DF828A09DF82C6014467F
:104BE00008D83F2A06D8009653463A4621464846FA
:104BF000FFF75CFF124B01345A7808F1FF38C2EB23
:104C00000A0A02229AFBF2FA0E4A5444A2F80090D1
:104C1000548099462C4618F9010F70B199F800306C
:104C200023447F2B09DCEA19934206DAB6FA86F1AF
:104C30004909DCB201F0A8F9EDE702B0BDE8F08760
:104C4000100400203C0700202DE9F04FB3F902606A
:104C50001D4693F900401F36202396FBF3F680464D
:104C60001746DFB076B2002306F1FF391CAA42F8DE
:104C700029305EAA02EB890242F8903C42F8783C67
:104C80008B4695F90120014652A8029301F0F1FDEF
:104C9000A30052AA02EB030A95F90120504608EB43
:104CA0000201059301F0E5FD394695F901203AA886
:104CB00001F0DFFD95F9012040A8B91801F0D9FDF8
:104CC00021463AA8FCF7CAFE029B0746002840F09E
:104CD0002881214640A8FCF7C1FE0290002840F040
:104CE000228105F11C0832463AA94046FCF758FEDD
:104CF000012840F01A81324640A94046FCF750FE98
:104D00000128049040F011813346424640A916A87C
:104D100001F09CFF0AAF029B594638462A4647F8E5
:104D20002930FFF70BFF39463846434616AA00964E
:104D3000FCF7C6FE0DF58C79434616AA3AA910A8D1
:104D40000096FCF7BDFE4846224652A9FCF752FEEB
:104D5000A30009EB030B514658462246FCF74AFED6
:104D600005F134031946224628A80393FCF742FEB6
:104D7000039BA100591822462EA805F1040AFCF74E
:104D800039FE4946534628AA16A8FFF771F95B4633
:104D90004A462EA928A8009501F0DBFE16A9084670
:104DA0002346524601F052FF16AA594648462B4662
:104DB00001F02DFF029B31460693039B3846079373
:104DC00052AB0893CDF82490FCF720FE3146814683
:104DD00010A8FCF71BFE4845B8BF48461FFA80F9EB
:104DE00009F1FF331BB2194638460293FCF72CFE3B
:104DF000029B071C194610A818BF0127FCF724FEC8
:104E0000002814BF022300231F430DF1180B5BF889
:104E10002770224639461CA8FCF7ECFDA300F918C0
:104E2000224622A8FCF7E6FD214616A8FCF73DFE27
:104E3000049BA9F1020916930FFA89F9B9F1000F41
:104E40000DF1700B40DB2B4616AAEF6F22A95846D6
:104E5000B84749460AA8FCF7F7FD4946071C10A8C1
:104E600018BF0127FCF7F0FD002814BF0220002026
:104E7000384306AB53F820701FB32246394628A8A2
:104E8000FCF7B8FD059B2246F9182EA8FCF7B2FDE9
:104E90002B4616AA2EA928A801F0B9FE534628AA27
:104EA000594634A8FFF7E4F822AB5A462EA928A8A1
:104EB000009501F04EFE16A92B4634AA0846FCF7D1
:104EC00033FD09F1FF39B7E716A9084623465246D4
:104ED00001F0BCFE2B4616AA22A9584601F097FE07
:104EE000324659464046FCF75BFD012804D0424655
:104EF00059465846FFF780F8013C64B20020002C68
:104F00000BDB5EAB03EB84035BF8242053F8903C8F
:104F1000013C5340184364B2F1E7B0FA80F0400915
:104F200004E0184602E0384600E002985FB0BDE8B1
:104F3000F08F2DE9F04FA5B02E9C049094F90080DD
:104F400012A8924642461D460591FCF753FD4FEAD2
:104F500088030293029A059B1EA8134419464246F1
:104F60000393FCF747FD94F9006006A83146FCF76F
:104F70009CFD0123324612A90CA80693FCF73AFDCA
:104F800032461EA918A8FCF735FD234606AA1EA91D
:104F900012A801F03CFE234606AA1EA912A8E66F3D
:104FA000B047234606AA18A90CA801F030FE023D1E
:104FB0002DB2002D25DD29465046FCF745FDB0FAFF
:104FC00080F040091823C0F101075F4303FB00F69E
:104FD0000CAA02EB070B0CAB18AA03EB060917444B
:104FE000164433464A4639465846009401F02CFD93
:104FF00000943B465A463146484601F0AAFD013D21
:10500000D6E7DAF80030182503F0010383F0010336
:10501000C3F101066E435D430CAA97190CAB18AAA5
:10502000164403EB0509154404F1040A00942B46C9
:105030004A463146384601F007FD53460CAA12A9EC
:1050400006A8FFF715F806A9234632460846FCF7DE
:105050006BFC06A92346059A0846FCF765FC06A9E1
:1050600043465246084601F0F1FD06A92346039A3D
:105070000846FCF759FC06A923463A460846FCF7C1
:1050800053FC009433463A462946484601F061FDF8
:10509000234606AA18A90CA801F0B9FD42460CA99E
:1050A0000498FCF7A7FC049B029C4246234418A9E1
:1050B0001846FCF79FFC25B0BDE8F08F2DE9F04FB6
:1050C000AFB0DDF8E0B00B93BBF90230556916695B
:1050D0001446029320221F3393FBF2F39BF90170D5
:1050E0005BB20393059006912E44002322699342FC
:1050F00005D20122F2540022EA540133F6E7294690
:105100002046FEF7F6FF23690022F2542269314659
:1051100001322046FEF7EBFF3A4605992046FEF79E
:10512000E6FF202206992046FEF7E1FF2A4629469F
:105130002046FEF7ABFF324629462046FEF7FCFF2D
:1051400029462046FEF7D5FF23690122F254226941
:10515000314601322046FEF7CAFF3A4605992046FD
:10516000FEF7C5FF202206992046FEF7C0FF2A461B
:1051700029462046FEF78AFF324629462046FEF79A
:10518000DBFF039B029A9B000C93039B5B0108933C
:105190009B1A1BB24FF0FF3222FA03F30D93402308
:1051A00009930027324629462046FEF7C5FF3146BF
:1051B000226932449142F5D011F8010B0DF1B80E7D
:1051C0007B1C774407F8780C0C985BB2834201DAB9
:1051D0001F46EFE7029B089A93420ADA039B2EAA26
:1051E000013B02EB830353F8782C0D990A4043F8F6
:1051F000782C9BF900300DF158090DF17008194613
:1052000010A8CDF83890CDF83C800493FCF726FC2C
:10521000D8B129462046FEF76CFF23690027F754D2
:105220002269314601322046FEF761FF2A462946AF
:105230002046FEF72BFF324629462046FEF77CFF2C
:10524000099B013B0993ACD190E0BBF902302027C8
:105250000A931F3393FBF7F70BF11C0A7FB23A4610
:1052600010A95046FCF709FC01280790D1D15B46F4
:105270004246494610A801F0BFFBB0FA80F00A9BF5
:105280002EAA400902EB8000CDF800B0013350F89F
:10529000802C1BB20BF1340122A8FFF74AFE0499BF
:1052A00022A8FCF7DBFB0A900028B2D13946484619
:1052B000FCF7FBFB079B10A9084616934A4653468A
:1052C0000097FCF7FDFB10A908463B46524601F04B
:1052D000BDFC10A9534608464A460097FCF7F0FB70
:1052E00022AA9BF901100B9801F03CFBBBF902309C
:1052F0000822073393FBF2F20599484601F0B9FA08
:105300000A9A2EAB03EB870343F84C2C22A9049A8C
:105310004046FCF76FFB53464246494640460097DD
:10532000FCF7CEFB5A4606994846FFF707FC534662
:105330004246494640460097FCF745FB534610AAB3
:10534000414640460097FCF7BBFB39464046FCF718
:105350005DFB9BF90110B0EBC10F3FF75AAF0B9B00
:1053600042460B44184601F0FDFA079F38462FB01D
:10537000BDE8F08F2DE9F0410446F4B000F004FBE5
:10538000B4F8C860002E64D1272840F2A5805E4D95
:1053900000F0ACFA2F78012F40F0B1802946282286
:1053A00004F1140002F0A4FC16A8FEF7FBFD05F1C1
:1053B0001A01022216A8FEF7E9FC1922691C16A898
:1053C000FEF7E4FC02A916A8FEF7A0FD88223146EC
:1053D00052A802F098FC4D4B4D4D52934D4BA8698D
:1053E00053934D4B52AA54934023559320235693E5
:1053F00032AB5793494B02A9009304300AABFFF735
:105400005DFE2846022384F83C3050F8183F5B8844
:10541000A4F85630FEF78AF91922014604F13D003E
:1054200002F066FC0C22A91804F1580002F0D2FD2B
:1054300030220AA904F1640002F05AFC582104F158
:105440003C0000F0B3FA364BA4F8C8701B68236127
:1054500055E0012E55D1302845D92B4D2B78032B03
:105460003ED104F1150800F041FA294F2B4A32A928
:10547000404601F08BFA52A8FEF794FDBB69022268
:105480005B8802A952A8ADF80830FEF77FFC07F14F
:105490001800FEF74BF91922014652A8FEF776FCD8
:1054A000013516A952A8FEF731FD1C4B2A4616A954
:1054B00032A8FFF7C9FB68B104F13006E18D32462E
:1054C000009543463846FEF73BF8324615490AA890
:1054D00002F03EFD00F03AFA0023A4F8C83010E0D4
:1054E00000F004FAF6E70E4B22691B689B1AA289AA
:1054F000934206D90023A4F8C63000F0F7F900F073
:1055000025FA74B0BDE8F08134060020D1550008BA
:1055100010110020CB550008C55500089C940008C8
:10552000901000202895000801464022014802F012
:1055300051BD00BFE01400202DE9F74F8DB23F2D83
:105540000746884692469B469DF8309005D8CDF890
:10555000009029460020FFF7A9FA184E0024758014
:1055600045463480013F17F9012F1AB314490B78CF
:10557000E018802805DC504503DC0A2A01D00D2AFA
:105580000AD14A7808EB0B011544EDB22A440024F5
:105590008A42348075800DDC97F900001C440A288B
:1055A000E4B2E0D00D28DED0B9FA89F1490900F063
:1055B000EBFCD8E703B0BDE8F08F00BF3C0700204C
:1055C000100400201830FEF7A1BC1830FEF7DEBB37
:1055D0001830FEF7E7BC10B5044602F071FB204618
:1055E00010BD000070B5154C23682568DB08FF2B43
:1055F00003D9134BFD221A7070BD05F00705114940
:10560000C5F1070230B9C85C012606FA02F220EAA9
:10561000020205E0C85C012606FA02F20243D2B299
:10562000072DCA5405D1084D1944286802F090FA94
:10563000286023680133236070BD00BF3807002055
:105640000C080020340600203407002070B5064600
:10565000072446FA04F30F4D13F0010F4FF0040333
:105660002B614FF4C87007D101F0B0FE4FF48023D6
:105670002B614FF4C87006E001F0A8FE4FF48023C0
:105680002B614FF4966001F0A1FE14F1FF34E0D2DB
:1056900070BD00BF00080140044B00225A62044B59
:1056A0006FF001021B681A6102F068BA0004004042
:1056B0000818002070B5044686B00E46FCF778FC4A
:1056C000384B3422DA60A568626805F1240102F5DE
:1056D0008063994210D3002506A9012341F8145D87
:1056E00002A8029503930492059302F0D9F90028C9
:1056F00036D16368A36023E02946002200230120FD
:10570000FCF768FCA1680022002302310220FCF7AC
:1057100061FCA1680022002306310220FCF75AFC3C
:10572000A168002200230A310220FCF753FCA16883
:10573000002200230E3102201235FCF74BFCA5603D
:105740004DF6DC420023A1680120FCF743FCA16870
:105750000023326802310220FCF73CFC034608B10A
:1057600000241AE0A568E268A91D0220FCF732FCBB
:1057700003460028F4D1226905F10A010220FCF752
:1057800029FC03460028EBD1626905F10E010220D5
:10579000FCF720FCB0FA80F46409FCF7FFFB20461C
:1057A00006B070BD002002408368D8787047426818
:1057B00013B5114602F5806399420ED24DF6DC43D3
:1057C0000C889C4207D10C2281600631104402F003
:1057D00001FC012016E01231ECE7836001238DF813
:1057E00007309DF80630032103F0F003002261F337
:1057F000071301A98DF804208DF806308DF80520D7
:10580000FFF758FF02B010BD70470000324B70B573
:10581000324C5E6A03F582339D6802F0BDF923784D
:1058200005F008055BB2C836042B4BD8DFE803F05F
:105830000309151A3600002D44D1FFF72DFF01236F
:1058400009E000233DB1B6F5487F04D9244A13602E
:10585000244A13600223237034E0EDB9FFF71CFFE4
:105860000323F8E7C5B1B6F5487F0ED91D4B1A687A
:105870001A601B680BB9052300E0FC2323701A4B48
:105880004FF40072C3F880201CE0B6F5C87F03D93E
:10589000FFF702FF0423DEE7FF23DCE795B9FFF7FC
:1058A000FBFE0323B6F5966F237001D9012003E0B8
:1058B000B6F5C87F03D92846FFF794FE02E0074BF0
:1058C000FF221A7023781B0642BF074B4FF4007269
:1058D000C3F8802070BD00BF000400400C08002009
:1058E000380700203407002000E100E0044B0022CC
:1058F0001A70044B4FF40072C3F88020704700BF49
:105900000C08002000E100E070B50C460646FFF7E9
:10591000EDFF0025CD732822294604F1140002F082
:10592000F2F92946582204F13C0002F0ECF9312248
:10593000294604F1940002F0E6F90323A4F8C630E6
:105940000223A4F8C8303570304670BD074A0023E2
:105950001360074A137003F18043082203F5823372
:105960005A61044B4FF400721A60704738070020E8
:105970000C08002000E100E010B50024A1F8C840A8
:10598000FFF7E4FF047010BD064B1868064B1B7848
:10599000052B02D1C00802D17047002070470138A2
:1059A000704700BF380700200C0800202DE9F8439D
:1059B0001B4D1C4C04230026266007462B614FF428
:1059C0004870884601F002FD4FF480232B614FF4AC
:1059D000487001F0FBFCF3B2984506F101060AD9C4
:1059E00007EB0309F85CFFF731FE2068494602F037
:1059F000AFF82060EFE7236823602068C0B2FFF7AC
:105A000025FE04232B614FF4487001F0DFFC4FF4B6
:105A100080232B614FF44870BDE8F84301F0D6BCF9
:105A200000080140340700202DE9F04FADF5217D3D
:105A300006460C46FFF7A8FFB1F8C6300546032B13
:105A40002AD101230B758148FDF770FE192201460A
:105A500004F1150002F04CF97D490C228B6904F128
:105A600030005B881144E38502F0B4FA04F11400BD
:105A70002821FFF79BFF0423A4F8C63000230093DE
:105A8000802240230A217348FFF756FD724B1B68A2
:105A90002361FFF75BFFD0E0042B40F0CE800027AE
:105AA000402380220A216B480097FFF745FD0097AD
:105AB0004023802214216948FFF73EFD572D40F214
:105AC0009C80674D95F80090B9F1020F40F09280EC
